S014000045443331345F50726F6A656B312E6D6F7451
S1070000CB69FFFFC6
S11300049F5D9F5D9F5D9F5D9F5D9F5D9F5D9F5D08
S11300149F5D9F5D9F5D9F5D9F5D9F5D9F5D9F5DF8
S1130024B545D6449F5D3146575C635C895CAF5CDF
S11300349F5D1A399F5D9F5D9F5D9F5D9F5D0F5D11
S1130044315D9F5D7D5D9F5D9F5D9F5D9F5D9F5D58
S11300549F5D9F5D9F5D9F5D9F5D9F5D9F5D9F5DB8
S11300649F5D9F5D9F5D9F5D9F5D9F5D9F5D9F5DA8
S10F00749F5D9F5D9F5D9F5D9F5D9F5D94
S10700C0EFFFE885DD
S10D00C4000000000000000000002E
S11300D80000000000000000000000000000000014
S11300E80000000000000000000000000000000004
S11300F800000000000000000000000000000000F4
S11302E0AF04EFBDF0A6F0ADF0BF04EFAFAAF3BDCD
S11302F0F044010061F8EC440400ADF044010071E5
S1130300FF61F3EC160300ADF044000061F8EC303B
S11303100300EC450400ADF044020061F8ECB303C3
S113032000ADF044030061F8EC4E0300EC4504001A
S1130330AF0AF2BDF044000061F8EC4A0300FC99F6
S11303403300F6BF0AF2EC450400EC450400AFAA02
S1130350F3BDF044010061F8ECAF0300AF0AF2BD55
S1130360F044000061E8EC910300FC465B00FCEB08
S11303705A00C9F0A5FFADF0BDF2DAF2510748000A
S113038000FC7F3300E6BF0AF2F6BF04EFECAF03D4
S113039000AF04EFBDF044320061E8ECAF0300FCB1
S11303A0993300F6BF0AF2F6BFAAF3EC450400EC59
S11303B0450400AFAAF3BDF044010061F8EC400429
S11303C000AF0AF2BDF044000061E8ECF60300FC63
S11303D0465B00FCEB5A00C9F0A5FFADF0BDF2DAB4
S11303E0F25107480000FC7F3300E6BF0AF2F6BF73
S11303F004EFEC400400AF04EFBDF044320061E8C8
S1130400EC0C0400FC993300EC400400AF04EFBD95
S1130410F044370061E8EC220400FC7F3300EC4038
S11304200400AF04EFBDF044690061E8EC4004004F
S1130430FC993300F6BF0AF2F6BFAAF3EC450400B8
S1130440EC45040000D7FC993300AF00EFBDF04445
S1130450000061E8EC7B0400C9F0A5FFADF0BDF23B
S1130460DAF2510B480000F6BF74EFF6BF76EFE600
S1130470BF0AF2FCC95800ECB30400C9F0A5FFADF3
S1130480F0BDF2FAF28B9DF04AF00761E8ECA404A7
S113049000C9F0A5FFADF0BDF2DAF2510B4800003F
S11304A0ECB30400C9F0A5FFADF0BDF2DAF25107D8
S11304B0480000E6BF00EFAF74EFBDF0440A0061EE
S11304C0E8ECE70400AFDCEFBDF044000061E8ECC9
S11304D0E70400F6BF0AF2F6BFAAF3F6BF00EFFC8A
S11304E0245900ECEB0400FC7F3300D72004C9F04E
S11304F0A5FFADF0BDF2DAF25107480000FC7F33EE
S113050000F6B802EC160500301027B800FC7E2374
S113051000A802A1B802A80244180071FF61E3EC2C
S1130520080500FC993300F6B802EC3C050030E8FD
S113053003B800FC7E2300A802A1B802A802441854
S11305400071FF61E3EC2E0500FC7F3300F6B80276
S1130550EC620500301027B800FC7E2300A802A13D
S1130560B802A80244180071FF61E3EC540500FCD2
S11305709933001004D72004C9F0A5FFADF0BDF2F3
S1130580DAF25107480000FC7F3300F6B802ECA011
S11305900500301027B800FC7E2300A802A1B80291
S11305A0A80244180071FF61E3EC920500FC993342
S11305B0001004D72008AF84F0BDF044000061F8B7
S11305C0ECE00500FCDA5900FC7F5900F6BF08EFA7
S11305D0F6BF06EFF6BF84F0F6BF7AEFF6BF78EF0A
S11305E0C9F007FFADF0BDF4FAF48B9DF25AF2BFE7
S11305F0ADF0DAF48DF2480000C80000C80200C86B
S11306000400C80600FC162500C80000C80200C883
S11306100400C80601FC16250030B80BB800FC7EA7
S11306202300C80000C80200C80400C80600FC1665
S11306302500C80000C80200C80401C80600FC1652
S11306402500306806B800FC7E2300C9F007FFAD22
S1130650F0BDF4FAF48B9DF26AF240ADF0DAF48D59
S1130660F2480000AF06EFBDF044080071FF61F3EB
S1130670EC960600AF78EFBDF044000061F8EC960C
S11306800600F6BF78EFAF08EFBDF0A6F0ADF0BFFF
S113069008EFECB60600AF06EFBDF0443B0071FF77
S11306A061E3ECB60600F6BF06EFF6BF08EFF6BF4F
S11306B07AEFF6BF78EFAF08EFBDF044020061F8BF
S11306C0EC970700ADF044020071FF61F3ECEB0618
S11306D000ADF044000061F8EC050700ADF0440102
S11306E00061F8EC480700EC2F0900ADF04403006A
S11306F061F8ECE20700ADF044040061F8EC310865
S113070000EC2F0900CF09F054CF0AF065CF0BF0AD
S11307106DCF0CF070CF0DF020F50EF08F32EF9D01
S1130720F0300EF0B8008DF09802FCFE2C00CF13D0
S1130730F027CF14F0433009F0B800300C00B802B1
S1130740FC622900EC2F0900CF09F048CF0AF075AC
S1130750CF0BF06DCF0CF069CF0DF064CF0EF069C4
S1130760CF0FF074CF10F079CF11F020F512F08F85
S113077033EF9DF03012F0B8008DF09802FCFE2C9F
S113078000CF17F0253009F0B800300F00B802FC94
S1130790622900EC2F0900CF09F050CF0AF072CF84
S11307A00BF065CF0CF073CF0DF073CF0EF020F586
S11307B00FF08F34EF9DF0300FF0B8008DF09802F9
S11307C0FCFE2C00CF14F06BCF15F050CF16F06167
S11307D03009F0B800300E00B802FC622900EC2F9A
S11307E00900CF09F057CF0AF069CF0BF06ECF0C98
S11307F0F064CF0DF02FCF0EF053CF0FF020F51093
S1130800F08F35EF9DF03010F0B8008DF09802FCB9
S1130810FE2C00CF15F06DCF16F02FCF17F07330EC
S113082009F0B800300F00B802FC622900EC2F096F
S1130830008FD0EF9DF0CDF100ADF0B800FCB039E1
S1130840008DF09F87F38FD1EF9DF0CDF100ADF0D7
S1130850B800FCB039008DF09F86F38FD2EF9DF085
S1130860CDF100ADF0B800FCB039008DF09F85F3F8
S11308708FD3EF9DF0CDF100ADF0B800FCB039009E
S11308808DF09F84F38FD5EF9DF0CDF100ADF0B8DE
S113089000FCB039008DF09F83F3CDF0008DF09F04
S11308A009F08F84F39DF061019DF03009F0B800E8
S11308B08DF09802FCDC2D00CF0BF02F8F83F39D7D
S11308C0F061019DF0300CF0B8008DF09802FCDC72
S11308D02D00CF0EF0208F85F39DF061019DF03047
S11308E00FF0B8008DF09802FCDC2D00CF11F03A27
S11308F08F86F39DF061019DF03012F0B8008DF009
S11309009802FCDC2D00CF14F03A8F87F39DF06140
S1130910019DF03015F0B8008DF09802FCDC2D003C
S11309203009F0B800300E00B802FC622900001053
S113093008D720EAAF7EEFBDF044160061F8EC5210
S11309400E00ADF044160071FF61F3EC9B0900AD9D
S1130950F0440B0061F8EC3E0A00ADF0440B00716A
S1130960FF61F3EC810900ADF044010061F8ECF2A1
S11309700900ADF044020061F8EC360A00EC3B15C6
S113098000ADF0440C0061F8EC6D0A00ADF0440DCC
S11309900061F8EC1A0E00EC3B1500ADF0442300A6
S11309A061F8EC941000ADF044230071FF61F3ECA6
S11309B0CD0900ADF044170061F8EC4C1000ADF027
S11309C0441D0061F8EC7B1000EC3B1500ADF044D5
S11309D02A0061F8EC2B1300ADF044330061F8EC0D
S11309E01B1500ADF044290061F8ECAC1000EC3BA1
S11309F01500F5DAEFCF1CF2F300FC254400ADF04E
S1130A0044000061E8ECFA0900C80080301CF2B828
S1130A1002E6B804C80600FCA54100EC200A000068
S1130A20AFAAF0BDF044000061F8EC1F0A00F6BF65
S1130A30AAF0EC3B1500FC8B4100EC3B1500C80010
S1130A4081301CF2B802300200B804C80600FCE38E
S1130A504200EC570A0000AFAAF0BDF04400006168
S1130A60F8EC560A00F6BFAAF0EC3B1500FC8B41EB
S1130A7000301CF2B800FC6449008DF09F1DF2CFD9
S1130A801CF2F78F1DF29DF09F32EF9DF070510024
S1130A90BDF28FA0F09DF0318FBDF0ADF246F07144
S1130AA0FF7177F161E3EC190C00AF96F0BDF044EF
S1130AB0000061E8EC190C00E6BF96F0AF7EF0BDD3
S1130AC0F0B8E8BDF2B896313DB894BDF4B896A834
S1130AD0E816A89627B89604ACF0BDF0BDF2DAF299
S1130AE051E1480000AF7EF0BDF4B8E68FD5EF9D2C
S1130AF0F2A8E6BDF0B892313DB890BDF4B892A822
S1130B00E616A89227B89204ADF0BDF0BDF4DAF46D
S1130B108DF2480000AF7EF0BDF0B8E48FD3EF9DB6
S1130B20F2A8E4BDF4B88E313DB88CBDF0B88EA8FF
S1130B30E416A88E27B88E04AEF0BDF0BDF4DAF446
S1130B408DF2480000AF7EF0BDF0B8E28FD2EF9D89
S1130B50F2A8E2BDF4B88A313DB888BDF0B88AA8DD
S1130B60E216A88A27B88A04AFF0BDF0BDF4DAF41F
S1130B708DF2480000AF7EF0BDF0B8E08FD1EF9D5C
S1130B80F2A8E0BDF4B886313DB884BDF0B886A8BB
S1130B90E016A88627B88604B0F0BDF0BDF4DAF4F8
S1130BA08DF2480000AF7EF0BDF0B8DE8FD0EF9D2F
S1130BB0F2A8DEBDF4B882313DB880BDF0B882A899
S1130BC0DE16A88227B88204B1F0BDF0BDF4DAF4D1
S1130BD08DF2480000AF7EF0BDF0B8DC8F32EF9D9F
S1130BE0F2A8DCBDF4B87E313DB87CBDF0B87EA877
S1130BF0DC16A87E27B87E04B2F0BDF0BDF4DAF4AA
S1130C008DF2480000AF7EF0BDF0A6F0ADF0BF7EDF
S1130C10F0FC922100EC4D0C008F32EF9DF07051EE
S1130C2000BDF28FA0F09DF0318FBDF0ADF246F023
S1130C3071FF7177F161C8EC4D0C00AF96F0BDF017
S1130C4044000061F8EC4D0C00F6BF96F08F32EFD3
S1130C509DF0705100BDF28F7AF09DF0318FBDF0A0
S1130C60ADF246F071FF7177F161C8ECDE0D00AFB3
S1130C709EF0BDF044000061E8ECDE0D00E6BF9E8E
S1130C80F0AF7EF0BDF0B8DABDF2B87A313DB87895
S1130C90BDF4B87AA8DA16A87A27B87A04ACF0BDFD
S1130CA0F0BDF2DAF251E2480000AF7EF0BDF4B8D4
S1130CB0D88FD5EF9DF2A8D8BDF0B876313DB87481
S1130CC0BDF4B876A8D816A87627B87604ADF0BDDA
S1130CD0F0BDF4DAF48DF2480000AF7EF0BDF0B858
S1130CE0D68FD3EF9DF2A8D6BDF4B872313DB8705B
S1130CF0BDF0B872A8D616A87227B87204AEF0BDBB
S1130D00F0BDF4DAF48DF2480000AF7EF0BDF0B827
S1130D10D48FD2EF9DF2A8D4BDF4B86E313DB86C37
S1130D20BDF0B86EA8D416A86E27B86E04AFF0BD97
S1130D30F0BDF4DAF48DF2480000AF7EF0BDF0B8F7
S1130D40D28FD1EF9DF2A8D2BDF4B86A313DB86814
S1130D50BDF0B86AA8D216A86A27B86A04B0F0BD74
S1130D60F0BDF4DAF48DF2480000AF7EF0BDF0B8C7
S1130D70D08FD0EF9DF2A8D0BDF4B866313DB864F1
S1130D80BDF0B866A8D016A86627B86604B1F0BD51
S1130D90F0BDF4DAF48DF2480000AF7EF0BDF0B897
S1130DA0CE8F32EF9DF2A8CEBDF4B862313DB8606B
S1130DB0BDF0B862A8CE16A86227B86204B2F0BD2E
S1130DC0F0BDF4DAF48DF2480000AF7EF0BDF0A679
S1130DD0F0ADF0BF7EF0FC922100EC160E008F32D5
S1130DE0EF9DF0705100BDF28F7AF09DF0318FBD10
S1130DF0F0ADF246F071FF7177F161E3EC160E008D
S1130E00AF9EF0BDF044000061F8EC160E00F6BF92
S1130E109EF0EC3B1500EC3B1500F5DAEFF6BFAAAB
S1130E20F0CF1CF2F5C80080301CF2B802E6B8041A
S1130E30C80600FCA54100EC3C0E0000AFAAF0BDC2
S1130E40F044000061F8EC3B0E00F6BFAAF0EC3B66
S1130E501500C80081301CF2B802300200B804C882
S1130E600600FCE34200F5DAEFEC6E0E0000AFAAD8
S1130E70F0BDF044000061F8EC6D0E00F6BFAAF07E
S1130E80FC8B4100301CF2B800FC6D4A008DF09FD1
S1130E901DF2CF1CF2F88F1DF29DF09F33EF9DF1F0
S1130EA08FA4F09DF08DF14BF061E3EC1E1000AFC8
S1130EB098F0BDF044000061E8EC1E1000E6BF9815
S1130EC0F0AF7EF0BDF0B8CCBDF2B85E313DB85C99
S1130ED0BDF4B85EA8CC16A85E27B85E04ACF0BD1D
S1130EE0F0BDF2DAF251E3480000AF7EF0BDF4B891
S1130EF0CA8FD5EF9DF2A8CABDF0B85A313DB85893
S1130F00BDF4B85AA8CA16A85A27B85A04ADF0BDF9
S1130F10F0BDF4DAF48DF2480000AF7EF0BDF0B815
S1130F20C88FD3EF9DF2A8C8BDF4B856313DB8546C
S1130F30BDF0B856A8C816A85627B85604AEF0BDDA
S1130F40F0BDF4DAF48DF2480000AF7EF0BDF0B8E5
S1130F50C68FD2EF9DF2A8C6BDF4B852313DB85049
S1130F60BDF0B852A8C616A85227B85204AFF0BDB7
S1130F70F0BDF4DAF48DF2480000AF7EF0BDF0B8B5
S1130F80C48FD1EF9DF2A8C4BDF4B84E313DB84C26
S1130F90BDF0B84EA8C416A84E27B84E04B0F0BD94
S1130FA0F0BDF4DAF48DF2480000AF7EF0BDF0B885
S1130FB0C28FD0EF9DF2A8C2BDF4B84A313DB84803
S1130FC0BDF0B84AA8C216A84A27B84A04B1F0BD71
S1130FD0F0BDF4DAF48DF2480000AF7EF0BDF0B855
S1130FE0C08F33EF9DF2A8C0BDF4B846313DB8447C
S1130FF0BDF0B846A8C016A84627B84604B2F0BD4E
S1131000F0BDF4DAF48DF2480000AF7EF0BDF0A636
S1131010F0ADF0BF7EF0FC922100EC4810008F335D
S1131020EF9DF18FA4F09DF08DF14BF061C8EC4879
S11310301000AF98F0BDF044000061F8EC481000D7
S1131040F6BF98F0EC3B1500EC3B1500CF1CF212F8
S1131050F51DF200FC254400ADF044000061E8EC0D
S1131060541000C800C0301CF2B802300200B804AA
S1131070C80600FCA54100EC3B1500F51CF2C800B5
S1131080C0301CF2B802E6B804C80600FCA5410052
S1131090EC3B1500C800C1301CF2B802300400B8A3
S11310A004C80600FCE34200EC3B15008F1CF29DD3
S11310B0F0CDF100ADF0318DBDF28F1DF29DF0CD7C
S11310C0F100ADF206F0BDF0BF82F08F1EF29DF08C
S11310D0CDF100ADF0318DBDF28F1FF29DF0CDF159
S11310E000ADF206F0BDF0BF8CF0AF82F0BDF2AF00
S11310F08CF0BDF0ADF2B800ADF0B802FCC24A000D
S1131100ADF0BF0EF2BDF0B8BEBDF2B8BAC8BC00B7
S1131110C8BD00A8BABDF4B840A8BCBDF0B842A888
S113112042316D98438841708842316D9842A8409D
S1131130316DB840FBF8FFA8406109BABDF0A84280
S113114061D8A16109BCBDF2D8F18DF2313D98B6E8
S1131150ADF2313D98B7ADF231DFB8B8A8B6BDF203
S1131160B8B4046400BDF0BF80F3BDF08DF09F1DE2
S1131170F2CF1CF2F98F1DF29DF09F34EF9DF18F99
S113118090F09DF08DF14BF061E3ECFD1200AF9A0D
S1131190F0BDF044000061E8ECFD1200E6BF9AF0F7
S11311A0AF7EF0BDF4B8B2BDF0B83E313DB83CBD41
S11311B0F2B83EA8B216A83E27B83E04ACF0BDF083
S11311C0BDF4DAF451E4480000AF7EF0BDF0B8B0ED
S11311D08FD5EF9DF2A8B0BDF4B83A313DB838BD13
S11311E0F0B83AA8B016A83A27B83A04ADF0BDF062
S11311F0BDF4DAF48DF2480000AF7EF0BDF0B8AE75
S11312008FD3EF9DF2A8AEBDF4B836313DB834BDEE
S1131210F0B836A8AE16A83627B83604AEF0BDF03E
S1131220BDF4DAF48DF2480000AF7EF0BDF0B8AC46
S11312308FD2EF9DF2A8ACBDF4B832313DB830BDC9
S1131240F0B832A8AC16A83227B83204AFF0BDF01B
S1131250BDF4DAF48DF2480000AF7EF0BDF0B8AA18
S11312608FD1EF9DF2A8AABDF4B82E313DB82CBDA4
S1131270F0B82EA8AA16A82E27B82E04B0F0BDF0F8
S1131280BDF4DAF48DF2480000AF7EF0BDF0B8A8EA
S11312908FD0EF9DF2A8A8BDF4B82A313DB828BD7F
S11312A0F0B82AA8A816A82A27B82A04B1F0BDF0D5
S11312B0BDF4DAF48DF2480000AF7EF0BDF0B8A6BC
S11312C08F34EF9DF2A8A6BDF4B826313DB824BDF5
S11312D0F0B826A8A616A82627B82604B2F0BDF0B2
S11312E0BDF4DAF48DF2480000AF7EF0BDF0A6F054
S11312F0ADF0BF7EF0FC922100EC2713008F34EF99
S11313009DF18F90F09DF08DF14BF061C8EC2713A7
S113131000AF9AF0BDF044000061F8EC271300F62A
S1131320BF9AF0EC3B1500EC3B1500AF2CF0BDF080
S113133044000061F8EC471300FC754D00AF6AEF00
S1131340BDF08DF09FDEEFAF6AEFBDF08DF09F1D15
S1131350F2CF1CF2FE00FC254400ADF04400006115
S1131360E8EC5613008F1DF29DF09F35EF9DF18F31
S113137014F29DF08DF14BF061E3ECED1400AF9CA1
S1131380F0BDF044000061E8ECED1400E6BF9CF011
S1131390AF7EF0BDF0B8A4BDF2B822313DB820BD97
S11313A0F4B822A8A416A82227B82204ACF0BDF0F1
S11313B0BDF2DAF251E6480000AF7EF0BDF4B8A207
S11313C08FD5EF9DF2A8A2BDF0B81E313DB81CBD6B
S11313D0F4B81EA8A216A81E27B81E04ADF0BDF0CE
S11313E0BDF4DAF48DF2480000AF7EF0BDF0B8A091
S11313F08FD3EF9DF2A8A0BDF4B81A313DB818BD43
S1131400F0B81AA8A016A81A27B81A04AEF0BDF0AE
S1131410BDF4DAF48DF2480000AF7EF0BDF0B89E62
S11314208FD2EF9DF2A89EBDF4B816313DB814BD1D
S1131430F0B816A89E16A81627B81604AFF0BDF08B
S1131440BDF4DAF48DF2480000AF7EF0BDF0B89C34
S11314508FD1EF9DF2A89CBDF4B812313DB810BDF8
S1131460F0B812A89C16A81227B81204B0F0BDF068
S1131470BDF4DAF48DF2480000AF7EF0BDF0B89A06
S11314808FD0EF9DF2A89ABDF4B80E313DB80CBDD3
S1131490F0B80EA89A16A80E27B80E04B1F0BDF045
S11314A0BDF4DAF48DF2480000AF7EF0BDF0B898D8
S11314B08F35EF9DF2A898BDF4B80A313DB808BD48
S11314C0F0B80AA89816A80A27B80A04B2F0BDF022
S11314D0BDF4DAF48DF2480000AF7EF0BDF0A6F062
S11314E0ADF0BF7EF0FC922100EC1715008F35EFB4
S11314F09DF18F14F29DF08DF14BF061C8EC17153E
S113150000AF9CF0BDF044000061F8EC171500F644
S1131510BF9CF0EC3B1500EC3B1500E6BF78F0AF48
S11315207CF0BDF0B800FC003500ADF0BF7EF3BD2B
S1131530F044000061E8EC1F15000010EAD7C9F080
S113154005FFADF0BDF2FAF28B9DF0311A9DF05A11
S1131550F0018DF09F0AEFAF10EFBDF04400006181
S1131560E8EC9315008F0AEF9DF04AF00161E8EC76
S11315709315008F0BEF9DF04AF00161E8EC931591
S1131580008F0CEF9DF04AF00161E8EC931500E642
S1131590BF10EFC9F005FFADF0BDF2FAF28B9DF07C
S11315A05AF0018DF09F22EFAF28EFBDF044000008
S11315B061E8ECE415008F22EF9DF04AF00161E848
S11315C0ECE415008F23EF9DF04AF00161E8ECE4B0
S11315D015008F24EF9DF04AF00161E8ECE415005A
S11315E0E6BF28EFC9F00EFFADF0BDF2FAF28B9D15
S11315F0F0311A9DF05AF0018DF09F2AEFAF30EFD1
S1131600BDF044000061E8EC3916008F2AEF9DF02C
S11316104AF00161E8EC3916008F2BEF9DF04AF097
S11316200161E8EC3916008F2CEF9DF04AF001615E
S1131630E8EC391600E6BF30EFC9F00DFFADF0BDA0
S1131640F2FAF28B9DF0317A9DF09F12EFAF18EF12
S1131650BDF044000061E8EC8916008F12EF9DF0A4
S11316604AF00161E8EC8916008F13EF9DF04AF00F
S11316700161E8EC8916008F14EF9DF04AF00161D6
S1131680E8EC891600E6BF18EFC9F001FFADF0BD24
S1131690F2FAF28B9DF0316A9DF05AF0018DF09FC1
S11316A01AEFAF20EFBDF044000061E8ECDE160055
S11316B08F1AEF9DF04AF00161E8ECDE16008F1BF3
S11316C0EF9DF04AF00161E8ECDE16008F1CEF9DFF
S11316D0F04AF00161E8ECDE1600E6BF20EFAF103F
S11316E0EFBDF044000061F8EC6817008F0AEF9D2D
S11316F0F0D4F061E8EC0617008F0BEF9DF0D4F006
S113170061F8EC2017008F0BEF9DF0D4F061E8EC4A
S11317105C17008F0CEF9DF0D4F061E8EC5C1700CF
S1131720E6BF0EEFF6BF10EFAF00EFBDF0440000D0
S113173061F8EC581700F6BF0AF2F6BFAAF3F6BF39
S113174000EFFC245900300A00BF74EFF6BFDCEF51
S1131750FC993300EC641700EC641700F6BF0EEF3D
S1131760EC6C1700EC6C1700F6BF0EEFAF28EFBD62
S1131770F044000061F8EC1418008F22EF9DF0D4BF
S1131780F061E8EC9417008F23EF9DF0D4F061F83A
S1131790ECAE17008F23EF9DF0D4F061E8EC08184D
S11317A0008F24EF9DF0D4F061E8EC081800E6BF48
S11317B026EFF6BF28EF8F18F29DF04AF04E61E84D
S11317C0EC041800AF0CF2BDF044000061E8ECDC5E
S11317D01700300200BF0CF2ECE81700AF0CF2BDAA
S11317E0F0B6F0ADF0BF0CF2F6BF7AEFF6BF78EFCB
S11317F0F6BF06EFE6BF84F0F6BF08EFE6BF78F069
S1131800EC101800EC101800F6BF26EFEC181800C6
S1131810EC181800F6BF26EFAF30EFBDF04400001F
S113182061F8ECBE18008F2AEF9DF0D4F061E8EC6B
S11318304018008F2BEF9DF0D4F061F8EC5A18009B
S11318408F2BEF9DF0D4F061E8ECB218008F2CEFF1
S11318509DF0D4F061E8ECB21800E6BF2EEFF6BFBD
S113186030EF8F18F29DF04AF04E61E8ECAE1800AC
S1131870AF0CF2BDF044020061E8EC861800F6BF3C
S11318800CF2EC921800AF0CF2BDF0A6F0ADF0BF74
S11318900CF2F6BF7AEFF6BF78EFF6BF06EFE6BFBD
S11318A084F0F6BF08EFE6BF78F0ECBA1800ECBAA3
S11318B01800F6BF2EEFECC21800ECC21800F6BFF9
S11318C02EEFAF18EFBDF044000061F8ECAE190044
S11318D08F12EF9DF0D4F061E8ECEA18008F13EF5B
S11318E09DF0D4F061F8EC0419008F13EF9DF0D44F
S11318F0F061E8ECA219008F14EF9DF0D4F061E8D8
S1131900ECA21900E6BF16EFF6BF18EF8F18F29D90
S1131910F04AF04E61E8EC541900AF0CF2BDF0440B
S1131920010061E8EC541900AF08EFBDF044000079
S113193061E8EC401900300400BF08EFEC4C1900DA
S1131940AF08EFBDF0B6F0ADF0BF08EFF6BFA2F000
S1131950EC9E19008F18F29DF04AF04E61E8EC9E5F
S11319601900AF0CF2BDF044020061E8EC9E1900CE
S1131970AFA8F0BDF044000061E8EC8E1900AF7E22
S1131980F0BDF0B6F0ADF0BFA8F0EC9E1900AFA822
S1131990F0BDF0B6F0ADF0BFA8F0ECAA1900ECAAC7
S11319A01900F6BF16EFECB21900ECB21900F6BF3D
S11319B016EFAF20EFBDF044000061F8EC9D1A0073
S11319C08F1AEF9DF0D4F061E8ECDA19008F1BEF69
S11319D09DF0D4F061F8ECF419008F1BEF9DF0D466
S11319E0F061E8EC911A008F1CEF9DF0D4F061E8EF
S11319F0EC911A00E6BF1EEFF6BF20EF8F18F29DA0
S1131A00F04AF04E61E8EC421A00AF0CF2BDF0442B
S1131A10010061E8EC421A00AF08EFBDF044040095
S1131A2061E8EC2E1A00F6BF08EFEC3A1A00AF0892
S1131A30EFBDF0A6F0ADF0BF08EFF6BFA2F0EC8D5D
S1131A401A008F18F29DF04AF04E61E8EC8D1A00EE
S1131A50AF0CF2BDF044020061E8EC8D1A00AF7ED9
S1131A60F0BDF0B1BDF2AFA8F0BDF0ADF246F0614B
S1131A70E8EC7D1A00F6BFA8F0EC8D1A00AFA8F0D0
S1131A80BDF0A6F0ADF0BFA8F0EC991A00EC991ADD
S1131A9000F6BF1EEFECA11A00ECA11A00F6BF1E5F
S1131AA0EF8F0BEF9DF09F0CEF8F0AEF9DF09F0BD4
S1131AB0EF8F23EF9DF09F24EF8F22EF9DF09F2364
S1131AC0EF8F2BEF9DF09F2CEF8F2AEF9DF09F2B34
S1131AD0EF8F13EF9DF09F14EF8F12EF9DF09F1384
S1131AE0EF8F1BEF9DF09F1CEF8F1AEF9DF09F1B54
S1131AF0EFD72002C9F003FFADF0BDF2FAF28B9DDF
S1131B00F0311A9DF05AF0018DF0705100BDF28F42
S1131B102AF09DF0CDF100ADF246F061F8EC331BF4
S1131B2000AFD8EFBDF044000061F8EC331B00FCBB
S1131B30C32700AF80EFBDF044000061F8EC491BFF
S1131B4000FCE00200F6BF80EFAF0EEFBDF04400F2
S1131B500061F8EC831B00F6BF0EEFF6B800EC76DC
S1131B601B00A800040AEFBDF0BDF2DAF2E1480060
S1131B7000A800A1B800A80044020071FF61E3ECD2
S1131B80621B00AF7CEFBDF044000061F8ECF51B74
S1131B9000F6BF7CEFFC3E1500AF8AF0BDF04400B8
S1131BA00061E8ECDD1B008F18F29DF04AF04E61F5
S1131BB0E8ECDD1B00AF0CF2BDF044010061E8EC81
S1131BC0CB1B00FC2E1C00ECDD1B00AF0CF2BDF0A7
S1131BD044020061E8ECDD1B00FC6C2000AF7EEFEA
S1131BE0BDF044630071FF61E3ECF11B00F6BF7EBE
S1131BF0EFFC320900AF2CF0BDF044000061F8ECBA
S1131C00071C00FC754D00AF00EFBDF044000061FF
S1131C10F8EC2B1C00AF76EFBDF044000061F8EC4B
S1131C202B1C00F6BF76EFFC4604001002D72004FC
S1131C30AF08EFBDF044020061F8ECBB1D00ADF04D
S1131C4044020071FF61F3EC651C00ADF044000038
S1131C5061F8EC7F1C00ADF044010061F8EC1F1D3D
S1131C6000EC692000ADF044030061F8EC5F1E0055
S1131C70ADF044040061F8EC031F00EC692000AFF0
S1131C800EEFBDF044000061F8EC951C00E6BFA225
S1131C90F0E6BF78F0AFA2F0BDF044000061E8ECDC
S1131CA0C71C00AF78F0BDF044000061F8ECC71C1D
S1131CB0003036EFB800300B00B802FC622900F6A1
S1131CC0BF78F0EC1B1D00AFA2F0BDF04400006132
S1131CD0F8EC1B1D00AF78F0BDF044000061F8EC97
S1131CE01B1D00F6BF78F0CDF0008DF09F09F08F3A
S1131CF032EF9DF03009F0B8008DF09802FCFE2C14
S1131D0000CF0EF027CF0FF0433009F0B8003007B2
S1131D1000B802FC622900EC692000EC692000AFE5
S1131D200EEFBDF044000061F8EC351D00E6BFA2E3
S1131D30F0E6BF78F0AFA2F0BDF044000061E8EC3B
S1131D40671D00AF78F0BDF044000061F8EC671D3A
S1131D50003042EFB800300800B802FC622900F6F7
S1131D60BF78F0ECB71D00AFA2F0BDF044000061F5
S1131D70F8ECB71D00AF78F0BDF044000061F8EC5A
S1131D80B71D00F6BF78F0CDF0008DF09F09F08FFD
S1131D9033EF9DF03009F0B8008DF09802FCFE2C72
S1131DA000CF0EF0253009F0B800300600B802FC70
S1131DB0622900EC692000EC692000AF0EEFBDF051
S1131DC044000061F8ECD11D00E6BFA2F0E6BF7844
S1131DD0F0AFA2F0BDF044000061E8EC031E00AFD8
S1131DE078F0BDF044000061F8EC031E00304BEFC6
S1131DF0B800300800B802FC622900F6BF78F0ECA5
S1131E005B1E00AFA2F0BDF044000061F8EC5B1E65
S1131E1000AF78F0BDF044000061F8EC5B1E00F602
S1131E20BF78F0CDF0008DF09F09F08F34EF9DF076
S1131E303009F0B8008DF09802FCFE2C00CF0EF0B3
S1131E406BCF0FF050CF10F0613009F0B8003008BC
S1131E5000B802FC622900EC692000EC692000AFA4
S1131E600EEFBDF044000061F8EC751E00E6BFA261
S1131E70F0E6BF78F0AFA2F0BDF044000061E8ECFA
S1131E80A71E00AF78F0BDF044000061F8ECA71E77
S1131E90003054EFB800300A00B802FC622900F6A2
S1131EA0BF78F0ECFF1E00AFA2F0BDF0440000616B
S1131EB0F8ECFF1E00AF78F0BDF044000061F8ECD0
S1131EC0FF1E00F6BF78F0CDF0008DF09F09F08F73
S1131ED035EF9DF03009F0B8008DF09802FCFE2C2F
S1131EE000CF0EF06DCF0FF02FCF10F0733009F04C
S1131EF0B800300800B802FC622900EC692000EC4C
S1131F00692000AF0EEFBDF044000061F8EC191F2A
S1131F1000E6BFA2F0E6BF78F0AFA2F0BDF0440047
S1131F200061E8EC4B1F00AF78F0BDF044000061A5
S1131F30F8EC4B1F00305FEFB800300900B802FC2A
S1131F40622900F6BF78F0EC682000AFA2F0BDF083
S1131F5044000061F8EC682000AF78F0BDF0440064
S1131F600061F8EC682000F6BF78F08FD0EF9DF0A8
S1131F70CDF100ADF0B800FCB039008DF09F87F3CF
S1131F808FD1EF9DF0CDF100ADF0B800FCB0390079
S1131F908DF09F86F38FD2EF9DF0CDF100ADF0B8B8
S1131FA000FCB039008DF09F85F38FD3EF9DF0CD09
S1131FB0F100ADF0B800FCB039008DF09F84F38FD0
S1131FC0D5EF9DF0CDF100ADF0B800FCB039008D37
S1131FD0F09F83F3CDF0008DF09F09F08F84F39D83
S1131FE0F061019DF03009F0B8008DF09802FCDC3E
S1131FF02D00CF0BF02F8F83F39DF061019DF03006
S11320000CF0B8008DF09802FCDC2D00CF0EF0200F
S11320108F85F39DF061019DF0300FF0B8008DF0D5
S11320209802FCDC2D00CF11F03A8F86F39DF0610D
S1132030019DF03012F0B8008DF09802FCDC2D0008
S1132040CF14F03A8F87F39DF061019DF03015F0C5
S1132050B8008DF09802FCDC2D003009F0B8003097
S11320600E00B802FC622900001004D7200AAF7EDB
S1132070F0BDF044000061E8ECA02000AF78F0BDB2
S1132080F044000061F8ECA0200030A089B80030D2
S11320900900B802FC622900F6BF78F0EC8F210039
S11320A0AF7EF0BDF044000071FF61E3EC8F2100CE
S11320B0AF78F0BDF044000061F8EC8F2100F6BF6A
S11320C078F0AFA8F0BDF0B808BDF2B806313DB85D
S11320D004BDF0B806A80816A80627B80604ACF094
S11320E0BDF0BDF2FAF28B9DF0CDF100ADF044E30A
S11320F00061F8EC5C2100ADF044E30071FF61F392
S1132100EC1E2100ADF044E10061F8EC382100AD93
S1132110F044E20061F8EC4A2100EC8F2100ADF0BC
S113212044E40061F8EC6E2100ADF044E60061F88F
S1132130EC802100EC8F210030AA89B80030100017
S1132140B802FC622900EC8F210030BB89B8003052
S11321500F00B802FC622900EC8F210030CB89B853
S113216000300D00B802FC622900EC8F210030D948
S113217089B800300D00B802FC622900EC8F210000
S113218030E789B800300F00B802FC622900001063
S11321900AD7200A8F18F29DF04AF04E61E8ECB895
S11321A02100300200BF0CF2AF7EF0BDF0B6F0ADFE
S11321B0F0BFA8F0EC862200AF7EF0BDF0B1B80805
S11321C0BDF0B806313DB804BDF2B806A80816A89B
S11321D00627B80604ACF0BDF0BDF2FAF28B9DF010
S11321E0CDF100ADF044E30061F8EC532200ADF012
S11321F044E30071FF61F3EC152200ADF044E1000B
S113220061F8EC2F2200ADF044E20061F8EC4122C9
S113221000EC862200ADF044E40061F8EC65220095
S1132220ADF044E60061F8EC772200EC8622003041
S1132230AA89B800301000B802FC622900EC86229A
S11322400030BB89B800300F00B802FC622900ECF2
S113225086220030CB89B800300D00B802FC622918
S113226000EC86220030D989B800300D00B802FC99
S1132270622900EC86220030E789B800300F00B8EC
S113228002FC62290000F6BF0AF2F6BFAAF3F6BF09
S113229000EFFC245900E6BFDCEFFC460400100A02
S11322A0D72004F6B800F54EF0ECC72200A802BD12
S11322B0F001BDF00496F0BDF0BDF2FAF2ABBDF052
S11322C0B800A802A1B802A80244040071FF61F397
S11322D0ECDF2200A80044000061F8ECAD2200A865
S11322E00044000061F8EC402300AF9CF0BDF08D89
S11322F0F031599DF2AF98F0BDF08DF031399DF079
S1132300768DF2610E9DF2AF9AF0BDF08DF0312919
S11323109DF0768DF2610E9DF2AF9EF0BDF08DF0D2
S113232061019DF0768DF2610E9DF2AF96F0BDF0E5
S11323308DF0768DF2610E9DF00C809DF09F4EF035
S11323401004D7C9F0E2FFADF0BDF4FAF48B9DF2AE
S11323505AF2EFADF0DAF48DF2480000C9F218FF3A
S1132360A804BDF0ADF2BDF4DAF4ADF0780000C914
S1132370F0B201ADF0BDF2DAF2E6780000D7200247
S1132380A806BDF0B800FC432300EC8F230000C96D
S1132390F0E2FFADF0BDF2FAF28B9DF05AF010D4EA
S11323A0F061F8EC8E2300FCB857001002D7200827
S11323B0C9F007FFADF0BDF4FAF48B9DF25AF2BFF9
S11323C0ADF0DAF48DF2480000C9F007FFADF0BDBE
S11323D0F4FAF48B9DF25AF2DFADF0DAF48DF248A0
S11323E0000030983AB800FC7E2300C80000C80200
S11323F000C80401C80601FC162500300410B8000A
S1132400FC7E2300C80000C80200C80401C80601FD
S1132410FC16250030C800B800FC7E2300C800006C
S1132420C80200C80401C80601FC16250030460095
S1132430B800FC7E2300C80000C80200C80401C81C
S11324400600FC162500304600B800FC7E2300C8B8
S11324500000C80200C80401C80600FC162500C814
S11324600001C80200C80400C80600FC162500309C
S11324704600B800FC7E2300C80000C80200C8045F
S113248000C80600FC162500C80001C80201C804E3
S113249001C80600FC162500304600B800FC7E2367
S11324A000C80000C80200C80400C80600FC1625C5
S11324B000C80000C80200C80400C80601FC1625B4
S11324C00030D007B800FC7E2300C80000C802001A
S11324D0C80400C80600FC162500C80000C8020194
S11324E0C80401C80600FC162500C80000C8020084
S11324F0C80400C80600FC162500C80000C8020075
S1132500C80400C80601FC16250030B80BB800FC4E
S11325107E23001008D72002C9F007FFADF0BDF4F8
S1132520FAF48B9DF25AF2DFADF0DAF48DF2480042
S1132530000000C9F007FFADF0BDF4FAF48B9DF282
S11325406AF210ADF0DAF48DF2480000C9F007FF2A
S113255088065C019DF25AF2018DF231399DF2AD8B
S1132560F0BDF4FAF48B9DF35AF3F78DF36BF29DFF
S1132570F2ADF0DAF48DF2480000C9F007FF8808E4
S11325805C019DF25AF2018DF231299DF2ADF0BD4C
S1132590F4FAF48B9DF35AF3FB8DF36BF29DF2ADD9
S11325A0F0DAF48DF2480000C9F007FF880A5C01F4
S11325B09DF25AF2018DF261019DF2ADF0BDF4FA83
S11325C0F48B9DF35AF3FD8DF36BF29DF2ADF0DACB
S11325D0F48DF2480000C9F007FF880C5C019DF2FD
S11325E05AF201ADF0BDF4FAF48B9DF35AF3FE8D6B
S11325F0F36BF29DF2ADF0DAF48DF24800000000C6
S11326000000000000C9F007FFADF0BDF4FAF48B40
S11326109DF25AF2EFADF0DAF48DF24800000000BA
S1132620306400B800FC7E23001002D761EFC1C300
S1132630C561CF2010881A317A980F881A7051001A
S1132640BDEC8DEC5C409DEA8DED5C009DEBADEA4C
S1132650316FBDEA8DEA980E881A705100BDEA8D7B
S1132660EA5C209DE88DEB5C009DE9ADE8315FBD3F
S1132670E88DE8980D881A705100BDE88DE85C106B
S11326809DF68DE95C009DF7ADF6314FBDF68DF6F4
S1132690980C881A705100BDF68DF65C089DF48D77
S11326A0F75C009DF5ADF4313FBDF48DF4980B88D3
S11326B01A705100BDF48DF45C049DF28DF55C003C
S11326C09DF3ADF2312FBDF28DF2980A881A705144
S11326D000BDF28DF25C029DF08DF35C009DF1ADC6
S11326E0F0311FBDF08DF09809881A5C01980888B4
S11326F00F9DF09800880E9DF09802880D9DF0982B
S113270004880C9DF09806FC162500880B9DF09813
S113271000880A9DF0980288099DF0980488089D15
S1132720F09806FC162500101061EFC4C2C061CFFA
S1132730D7200AC9F007FFADF0BDF4FAF48B9DF27F
S11327405AF2BFADF0DAF48DF2480000C9F007FF89
S1132750ADF0BDF4FAF48B9DF25AF2DFADF0DAF489
S11327608DF2480000C80000C80200C80400C80672
S113277001FC162500C80001C80200C80400C806F0
S113278000FC162500C9F007FFADF0BDF4FAF48B88
S11327909DF26AF240ADF0DAF48DF2480000F6B82A
S11327A008ECB3270030E803B800FC7E2300A80837
S11327B0A1B808A80844E70371FF61E3ECA527006A
S11327C0100AD72008C9F003FFADF0BDF2FAF28B6E
S11327D09DF05AF002D4F061E8EC8928008F2AF0C9
S11327E09DF0D4F061F8EC892800C9F007FFADF042
S11327F0BDF4FAF48B9DF25AF2BFADF0DAF48DF227
S1132800480000C9F007FFADF0BDF4FAF48B9DF267
S11328105AF2DFADF0DAF48DF2480000C80000C8C7
S11328200200C80400C80600FC162500C80000C841
S11328300200C80400C80601FC162500306806B86A
S113284000FC7E2300C9F007FFADF0BDF4FAF48B61
S11328509DF26AF240ADF0DAF48DF2480000C8004F
S11328604DFC2C2600C80061FC2C2600C80069FC25
S11328702C2600C8006EFC2C2600F52AF0E6BF8A40
S1132880F0F6BF6EEFEC5F2900C9F003FFADF0BDB9
S1132890F2FAF28B9DF05AF002D4F061F8EC5F2961
S11328A0008F2AF09DF04AF00161F8EC5F2900C91D
S11328B0F007FFADF0BDF4FAF48B9DF25AF2BFAD10
S11328C0F0DAF48DF2480000C9F007FFADF0BDF472
S11328D0FAF48B9DF25AF2DFADF0DAF48DF248008F
S11328E000C80000C80200C80400C80600FC162581
S11328F000C80000C80200C80400C80601FC162570
S113290000306806B800FC7E2300C9F007FFADF074
S1132910BDF4FAF48B9DF26AF240ADF0DAF48DF274
S1132920480000C80042FC2C2600C80061FC2C268C
S113293000C80074FC2C2600C80074FC2C2600C8B7
S11329400065FC2C2600C80072FC2C2600C8007907
S1132950FC2C2600E52AF0E6BF8AF0F6BF6EEF10E5
S113296008D72012C80900C80A00C80B00C80C0008
S1132970C80D00C80E00C80F00C9F007FFADF0BDB8
S1132980F4FAF48B9DF25AF2BFADF0DAF48DF2480A
S11329900000C80000C80200C80400C80600FC16F5
S11329A02500C80000C80200C80400C80601FC16BF
S11329B0250030B80BB800FC7E2300C80000C80214
S11329C000C80400C80600FC162500C80000C802A0
S11329D000C80401C80600FC162500306806B800CB
S11329E0FC7E2300C9F007FFADF0BDF4FAF48B9D23
S11329F0F26AF240ADF0DAF48DF2480000A818440F
S1132A00080071FF61F3EC442A00F6B810EC2D2A9B
S1132A1000A810BDF0A81606F0BDF0BDF2FAF28BC6
S1132A209DF09800FC2C2600A810A1B810A818BD91
S1132A30F0A81046F071FF7177F161D8EC112A000B
S1132A40EC822C00A81844100071FF61F3EC312BC8
S1132A5000F6B810EC742A00A810BDF0A81606F011
S1132A60BDF0BDF4FAF48B9DF09800FC2C2600A870
S1132A7010A1B810A81044070071FF61E3EC582AB4
S1132A8000C9F007FFADF0BDF4FAF48B9DF25AF2E1
S1132A90BFADF0DAF48DF2480000C9F007FFADF0E5
S1132AA0BDF4FAF48B9DF25AF2DFADF0DAF48DF254
S1132AB0480000C80001C80201C80400C80600FCA0
S1132AC0162500C80000C80200C80400C80600FC9F
S1132AD0162500302800B800FC7E2300C9F007FF4B
S1132AE0ADF0BDF4FAF48B9DF26AF240ADF0DAF485
S1132AF08DF2480000300800B810EC1A2B00A81022
S1132B00BDF0A81606F0BDF0BDF2FAF28B9DF09868
S1132B1000FC2C2600A810A1B810A818BDF0A8101D
S1132B2046F071FF7177F161D8ECFE2A00EC822C3B
S1132B3000F6B810EC542B00A810BDF0A81606F04F
S1132B40BDF0BDF4FAF48B9DF09800FC2C2600A88F
S1132B5010A1B810A818BDF0A81046F071FF717745
S1132B60F161D8EC382B00C9F007FFADF0BDF4FAE1
S1132B70F48B9DF25AF2BFADF0DAF48DF248000006
S1132B80C9F007FFADF0BDF4FAF48B9DF25AF2DF01
S1132B90ADF0DAF48DF2480000C80001C80201C8A3
S1132BA00400C80600FC162500C80000C80200C8BE
S1132BB00400C80600FC162500302800B800FC7E7E
S1132BC02300C9F007FFADF0BDF4FAF48B9DF26A5F
S1132BD0F240ADF0DAF48DF2480000300800B8108D
S1132BE0EC002C00A810BDF0A81606F0BDF0BDF254
S1132BF0FAF28B9DF09800FC2C2600A810A1B810C6
S1132C00A818BDF0A81046F071FF7177F161D8ECF7
S1132C10E42B00300200B800FC852C00F6B810EC60
S1132C20612C00FC312700C9F003FFADF0BDF4FABC
S1132C30F48B9DF0311A9DF05AF0018DF070510023
S1132C40BDF28F2AF09DF0CDF100ADF246F061F8AF
S1132C50EC5C2C00FCC32700EC7B2C00A810A1B872
S1132C6010A81804F0FFBDF2A810BDF0ADF246F0B4
S1132C7071FF7177F161F3EC232C00E6B800FC8559
S1132C802C001012D72006F6B804ECB52C00F6B8C8
S1132C9002ECA32C0030E803B800FC7E2300A80259
S1132CA0A1B802A80244E70371FF61E3EC952C008C
S1132CB0A804A1B804A80ABDF0A80446F071FF71E5
S1132CC077F161D8EC8E2C001006D72002F6B800FC
S1132CD0ECE82C00A80004E0EFBDF0BDF2DAF2F15C
S1132CE0480000A800A1B800A806BDF0A80046F05E
S1132CF071FF7177F161D8ECD42C001002D761EF29
S1132D00C161CF2004880C9DF1CDF0014AF1C86166
S1132D10C8EC182D00CDF0008DF00C309DF2A80AFF
S1132D20BDF0BDF4DAF48DF2480000A80AA1BDE8B4
S1132D30880C9DF2CDF0014AF2C861C8EC432D0025
S1132D40CDF0008DF031399DF031399DF18DF07663
S1132D508DF1612E9DF176F1612E9DF0768DF261FB
S1132D602E9DF09800C80214FCBE7C008DF00C303F
S1132D709DF0DAE8480000A80A040200BDE8880CC7
S1132D809DF09800C80214FCC47C008DF0311A9D9B
S1132D90F00C309DF0DAE8480000A80A040300BDF6
S1132DA0F0BDF2DAF2512E480000A80A040400BD76
S1132DB0F0880C5C019DF2D4F261F8ECC62D00CDD4
S1132DC0F235ECC92D00CDF230ADF0BDF4DAF48D5E
S1132DD0F2480000100461EFC061CFD761EFC16118
S1132DE0CF2004880C9DF2CDF0014AF2C861C8ECF2
S1132DF0F62D00CDF0008DF031399DF031399DF183
S1132E008DF0768DF1612E9DF176F1612E9DF07637
S1132E108DF2612E9DF09800C80214FCBE7C008DDA
S1132E20F00C309DF2A80ABDF0BDF4DAF48DF2483E
S1132E300000A80AA1BDE8880C9DF09800C80214FF
S1132E40FCC47C008DF0311A9DF00C309DF0DAE862
S1132E50480000100461EFC061CFD72006C9F0A07C
S1132E60FFADF0BDF2DAF25112480000C9F0A1FF43
S1132E70ADF0BDF4FAF48B9DF26AF280ADF0DAF4B1
S1132E808DF2480000C9F0A4FFADF0BDF4FAF48B54
S1132E909DF25AF2EFADF0DAF48DF2480000C9F079
S1132EA0A1FFADF0BDF4FAF48B9DF25AF2BFADF080
S1132EB0DAF48DF2480000F6B804ECCE2E0000A837
S1132EC004BDF0B802BDF2B800A1BDF0B804A80476
S1132ED0BDF044A00061E3ECBE2E00C9F0F300ADE8
S1132EE0F0BDF4DAF4F1480000C9F0A4FFADF0BD80
S1132EF0F4FAF48B9DF25AF2BFADF0DAF48DF24895
S1132F000000C9F0A1FFADF0BDF4FAF48B9DF25AB4
S1132F10F2FEADF0DAF48DF24800001006D720027C
S1132F20C9F0A8FFADF0BDF2FAF28B9DF098011044
S1132F3002D7C9F0E4FFADF0BDF4FAF48B9DF26A58
S1132F40F204ADF0DAF48DF2480000C9F0E0FFAD10
S1132F50F0BDF4FAF48B9DF25AF2FBADF0DAF48D85
S1132F60F2480000C9F0E4FFADF0BDF4FAF48B9D23
S1132F70F26AF208ADF0DAF48DF2480000C9F0E02C
S1132F80FFADF0BDF4FAF48B9DF25AF2F7ADF0DA2E
S1132F90F48DF2480000C9F0E4FFADF0BDF4FAF49A
S1132FA08B9DF26AF210ADF0DAF48DF2480000C99C
S1132FB0F0E0FFADF0BDF4FAF48B9DF25AF2EFAD00
S1132FC0F0DAF48DF2480000C9F0E4FFADF0BDF48E
S1132FD0FAF48B9DF26AF220ADF0DAF48DF2480037
S1132FE000C9F0E0FFADF0BDF4FAF48B9DF25AF2A3
S1132FF0DFADF0DAF48DF2480000C9F0E4FFADF083
S1133000BDF4FAF48B9DF26AF240ADF0DAF48DF27D
S1133010480000C9F0E0FFADF0BDF4FAF48B9DF276
S11330205AF2BFADF0DAF48DF2480000C9F0E4FFC3
S1133030ADF0BDF4FAF48B9DF26AF280ADF0DAF4EF
S11330408DF2480000C9F0E0FFADF0BDF4FAF48B56
S11330509DF25AF27FADF0DAF48DF2480000C9F027
S1133060D4FFADF0BDF4FAF48B9DF26AF208ADF032
S1133070DAF48DF2480000C9F0D0FFADF0BDF4FAE7
S1133080F48B9DF25AF2F7ADF0DAF48DF2480000B9
S1133090C9F0D4FFADF0BDF4FAF48B9DF26AF210DE
S11330A0ADF0DAF48DF2480000C9F0D0FFADF0BD08
S11330B0F4FAF48B9DF25AF2EFADF0DAF48DF248A3
S11330C00000C9F0D4FFADF0BDF4FAF48B9DF26AB0
S11330D0F220ADF0DAF48DF2480000C9F0D0FFAD73
S11330E0F0BDF4FAF48B9DF25AF2DFADF0DAF48D10
S11330F0F2480000C9F0D4FFADF0BDF4FAF48B9DA2
S1133100F26AF240ADF0DAF48DF2480000C9F0D072
S1133110FFADF0BDF4FAF48B9DF25AF2BFADF0DAD4
S1133120F48DF2480000C9F0D4FFADF0BDF4FAF418
S11331308B9DF26AF280ADF0DAF48DF2480000C99A
S1133140F0D0FFADF0BDF4FAF48B9DF25AF27FADEE
S1133150F0DAF48DF2480000C9F0D5FFADF0BDF40B
S1133160FAF48B9DF26AF201ADF0DAF48DF24800C4
S113317000C9F0D1FFADF0BDF4FAF48B9DF25AF220
S1133180FEADF0DAF48DF2480000C9F0ECFFADF0CA
S1133190BDF4FAF48B9DF26AF240ADF0DAF48DF2EC
S11331A0480000C9F0E8FFADF0BDF4FAF48B9DF2DD
S11331B06AF240ADF0DAF48DF2480000C9F0DCFFA9
S11331C0ADF0BDF4FAF48B9DF26AF210ADF0DAF4CE
S11331D08DF2480000C9F0D8FFADF0BDF4FAF48BCD
S11331E09DF26AF210ADF0DAF48DF2480000C9F0F5
S11331F039FFADF0BDF2DAF25190480000C9F03861
S1133200FFADF0BDF4DAF45190480000C9F023FF9B
S1133210C9F223FFADF2BDF4FAF48B9DF26AF20217
S1133220ADF0BDF4DAF48DF2480000C9F02EFFC908
S1133230F22EFFADF2BDF4FAF48B9DF26AF202AD08
S1133240F0BDF4DAF48DF2480000D7C9F0E0FFAD28
S1133250F0BDF4FAF48B9DF25AF2BFADF0DAF48DBE
S1133260F2480000C9F0E4FFADF0BDF4FAF48B9D20
S1133270F25AF2BFADF0DAF48DF2480000D7C9F08B
S1133280E4FFADF0BDF4FAF48B9DF26AF240ADF0C8
S1133290DAF48DF2480000C9F0E0FFADF0BDF4FAB5
S11332A0F48B9DF25AF2BFADF0DAF48DF2480000CF
S11332B0D7C9F0D0FFADF0BDF4FAF48B9DF25AF209
S11332C0EFADF0DAF48DF2480000C9F0D4FFADF0B0
S11332D0BDF4FAF48B9DF25AF2EFADF0DAF48DF20C
S11332E0480000D7C9F0D4FFADF0BDF4FAF48B9DCB
S11332F0F26AF210ADF0DAF48DF2480000C9F0D0B1
S1133300FFADF0BDF4FAF48B9DF25AF2EFADF0DAB2
S1133310F48DF2480000D7D7D7C9F0A5FFADF0BDB2
S1133320F4FAF48B9DF25AF27FADF0DAF48DF248A0
S11333300000C9F0A5FFADF0BDF2DAF2E1480000EB
S1133340C9F00EFFC9F20EFFADF2BDF4FAF48B9D85
S1133350F25AF2FEADF0BDF4DAF48DF2480000C981
S1133360F02EFFC9F22EFFADF2BDF4FAF48B9DF2FC
S11333705AF2FEADF0BDF4DAF48DF2480000D7C97C
S1133380F0A5FFADF0BDF4FAF48B9DF26AF280ADC6
S1133390F0DAF48DF2480000D7C9F0A5FFADF0BD16
S11333A0F4FAF48B9DF25AF27FADF0DAF48DF24820
S11333B00000D7C9F03400ADF0BDF2DAF2E1480004
S11333C000D7C9F0F000ADF0BDF4FAF48B9DF26AB9
S11333D0F280ADF0DAF48DF2480000C9F09DFFAD43
S11333E0F0BDF4FAF48B9DF25AF27FADF0DAF48D6D
S11333F0F2480000C9F0E7FFADF0BDF4FAF48B9D8C
S1133400F26AF202ADF0DAF48DF2480000C9F0E39A
S1133410FFADF0BDF4FAF48B9DF25AF2FDADF0DA93
S1133420F48DF2480000C9F0EFFFADF0BDF4FAF4FA
S11334308B9DF26AF202ADF0DAF48DF2480000C915
S1133440F0EBFFADF0BDF4FAF48B9DF26AF202AD3D
S1133450F0DAF48DF2480000C9F09DFFADF0BDF242
S1133460DAF2510A480000D7C9F0E3FFADF0BDF429
S1133470FAF48B9DF25AF2FDADF0DAF48DF24800C5
S113348000C9F0E7FFADF0BDF4FAF48B9DF25AF2F7
S1133490FDADF0DAF48DF2480000C9F09DFFADF007
S11334A0BDF4FAF48B9DF26AF280ADF0DAF48DF299
S11334B0480000D7C9F09DFFADF0BDF4FAF48B9D30
S11334C0F25AF27FADF0DAF48DF2480000C9F0E769
S11334D0FFADF0BDF4FAF48B9DF26AF202ADF0DABE
S11334E0F48DF2480000C9F0E3FFADF0BDF4FAF446
S11334F08B9DF25AF2FDADF0DAF48DF2480000D75C
S11335002008F6B806C9F09EFFC9F29EFFADF2BDD1
S1133510F4FAF48B9DF26AF201ADF0BDF4DAF48DA5
S1133520F2480000F6B802F6B804EC40350000A8F2
S113353002040100B802A80461D8A1040000B80480
S1133540A804440000A80261F8443F0161E3EC2EA2
S11335503500C9F09EFFADF0BDF2FAF28B9DF05A32
S1133560F002D4F061E8EC733500300300B806ECE7
S1133570873600C9F092FFADF0BDF4FAF48B9DF2EA
S1133580A80CBDF0BDF4DAF48DF2480000C9F09344
S1133590FFADF0BDF4FAF48B9DF2A80CBDF0DAF0A7
S11335A08DF2480100C9F094FFADF0BDF4FAF48B3C
S11335B09DF2A80CBDF0DAF08DF2480200C9F09536
S11335C0FFADF0BDF4FAF48B9DF2A80CBDF0DAF077
S11335D08DF2480400C9F096FFADF0BDF4FAF48B07
S11335E09DF2A80CBDF0DAF08DF2480300C9F09703
S11335F0FFADF0BDF4FAF48B9DF2A80CBDF0DAF047
S11336008DF2480500C9F098FFADF0BDF4FAF48BD3
S11336109DF2A80CBDF0DAF08DF2480600C9F09EC8
S1133620FFC9F29EFFADF2BDF4FAF48B9DF25AF29B
S1133630FEADF0BDF4DAF48DF2480000F6B802F6FF
S1133640B804EC58360000A802040100B802A8042B
S113365061D8A1040000B804A804440000A80261D1
S1133660F8443F0161E3EC463600C9F09EFFADF03B
S1133670BDF2FAF28B9DF05AF002D4F061F8EC87B7
S11336803600300400B806A806BDF4B800BDF0103A
S113369008D72008F6B806C9F09EFFC9F29EFFAD10
S11336A0F2BDF4FAF48B9DF26AF201ADF0BDF4DAE6
S11336B0F48DF2480000F6B802F6B804ECD23600F5
S11336C000A802040100B802A80461D8A104000003
S11336D0B804A804440000A80261F8443F0161E36F
S11336E0ECC03600C9F09EFFADF0BDF2FAF28B9D3E
S11336F0F05AF002D4F061E8EC053700300300B86A
S113370006ECF43700C9F092FF880C9DF2ADF0BDD1
S1133710F4DAF48DF2480000C9F093FF880D9DF2AD
S1133720ADF0BDF4DAF48DF2480000C9F094FF88DE
S11337300E9DF2ADF0BDF4DAF48DF2480000C9F04C
S113374095FF88109DF2ADF0BDF4DAF48DF24800D7
S113375000C9F096FF880F9DF2ADF0BDF4DAF48D48
S1133760F2480000C9F097FF88119DF2ADF0BDF456
S1133770DAF48DF2480000C9F098FF88129DF2AD8A
S1133780F0BDF4DAF48DF2480000C9F09EFFC9F2EE
S11337909EFFADF2BDF4FAF48B9DF25AF2FEADF049
S11337A0BDF4DAF48DF2480000F6B802F6B804EC81
S11337B0C5370000A802040100B802A80461D8A11A
S11337C0040000B804A804440000A80261F8443FBF
S11337D00161E3ECB33700C9F09EFFADF0BDF2FA2E
S11337E0F28B9DF05AF002D4F061F8ECF43700301B
S11337F00400B806A806BDF4B800BDF01008D72030
S113380004F6B802A80844000061F8EC1A3800A8CD
S11338100844060061E3EC233800308100B802EC70
S1133820B73800C9F0E7FFADF0BDF4FAF48B9DF2B0
S11338306AF202ADF0DAF48DF2480000C9F09DFF9F
S1133840C9F29DFFADF2BDF4FAF48B9DF25CF89DD4
S1133850F388089DF28DF36BF29DF2ADF0BDF4DABE
S1133860F48DF2480000C9F09EFFC9F29EFFADF24C
S1133870BDF4FAF48B9DF25AF2F7ADF0BDF4DAF42C
S11338808DF2480000C9F0E3FFADF0BDF4FAF48B0B
S11338909DF25AF2FDADF0DAF48DF2480000C9F061
S11338A0E7FFADF0BDF4FAF48B9DF25AF2FDADF0F2
S11338B0DAF48DF2480000A802BDF0B800BDF010A3
S11338C004D7C9F09DFFC9F29DFFADF2BDF4FAF42F
S11338D08B9DF25AF2F8ADF0BDF4DAF48DF24800A3
S11338E000C9F09EFFC9F29EFFADF2BDF4FAF48B5D
S11338F09DF25AF2F7ADF0BDF4DAF48DF24800000F
S1133900C9F0E3FFADF0BDF4FAF48B9DF25AF2FD79
S1133910ADF0DAF48DF2480000D761CFC1C3C5C75A
S113392061DFC1C3C5C761EFC761CFC9F09EFFADF9
S1133930F0BDF2FAF28B9DF05AF008D4F061F8EC85
S1133940663900C9F09EFFC9F29EFFADF2BDF4FADC
S1133950F48B9DF25AF2F7ADF0BDF4DAF48DF2482F
S11339600000FC77390061EFC661DFC6C4C2C061E4
S1133970CFC6C4C2C061FCE6BF2CF0D72008880CB7
S11339809DF09800C8020AFCC47C008DF09807885A
S11339900C9DF09800C8020AFCBE7C008DF09806CD
S11339A031499DF0768807610E98059DF01008D77F
S11339B020048808314A980388085C0F9802880319
S11339C09DF061019DF031299DF1768DF0610E9D90
S11339D0F0768802610E98019DF01004D7C9F0F0CA
S11339E000ADF0BDF4FAF48B9DF26AF204ADF0DAA6
S11339F0F48DF248000000000000C9F02601ADF08B
S1133A00BDF2DAF2303300780000FC0F3A00D761DF
S1133A10EFC161CFC9E82401C9F62401ADF6BDF0B8
S1133A20FAF0ABBDF68DF66C0C9DF48DF76C009D31
S1133A30F5DAE8ADF4780000C9F4E6FFADF4BDF2C0
S1133A40FAF28B9DF66AF601ADF4BDF0DAF08DF66C
S1133A50480000C9F4E2FFADF4BDF2FAF28B9DF622
S1133A605AF6FEADF4BDF0DAF08DF6480000C9F464
S1133A70E6FFADF4BDF2FAF28B9DF66AF602ADF400
S1133A80BDF0DAF08DF6480000C9F4E2FFADF4BDF4
S1133A90F2FAF28B9DF65AF6FDADF4BDF0DAF08D34
S1133AA0F6480000C9F4E6FFADF4BDF2FAF28B9DCE
S1133AB0F66AF604ADF4BDF0DAF08DF6480000C9FC
S1133AC0F4E2FFADF4BDF2FAF28B9DF65AF6FBADCB
S1133AD0F4BDF0DAF08DF6480000C9F4EEFFADF461
S1133AE0BDF2FAF28B9DF66AF601ADF4BDF0DAF0A0
S1133AF08DF6480000C9F4EAFFADF4BDF2FAF28B8A
S1133B009DF66AF601ADF4BDF0DAF08DF6480000DA
S1133B10C9F4EEFFADF4BDF2FAF28B9DF66AF6023B
S1133B20ADF4BDF0DAF08DF6480000C9F4EAFFAD5B
S1133B30F4BDF2FAF28B9DF66AF602ADF4BDF0DA4A
S1133B40F08DF6480000C9F41401ADF4BDF2DAF2C8
S1133B50302200780000C9F41C01ADF4BDF0DAF0A5
S1133B60309780780000C9F444FFADF4BDF2DAF276
S1133B703000CE780000C9F47000C9F67000ADF6CC
S1133B80BDF0FAF08B9DF66AF604ADF4BDF2DAF2FC
S1133B908DF6480000C9F40E01ADF4BDF0DAF03042
S1133BA00700780000C9F41601ADF4BDF2DAF23072
S1133BB02201780000C9F41E01ADF4BDF0DAF03042
S1133BC09740780000C9F446FFADF4BDF2DAF23054
S1133BD000CE780000C9F62801C9F42801ADF4BD6F
S1133BE0F0FAF0ABBDF48DF46C049DF28DF56C002D
S1133BF09DF3ADF6BDF4DAF4ADF2780000C9F43407
S1133C0001C9F23401ADF2BDF0FAF0ABBDF2ADF48E
S1133C10BDF0DAF0ADF2780000C9F42A01C9F22A45
S1133C2001ADF2BDF0FAF0ABBDF28DF26C049DF083
S1133C308DF36C009DF1ADF4BDF2DAF2ADF07800D5
S1133C4000C9F06000C9F26000ADF2BDF4FAF48B73
S1133C509DF25AF2F7ADF0BDF4DAF48DF2480000AB
S1133C60C9F020FFC9F220FFADF2BDF4FAF48B9D38
S1133C70F26AF208ADF0BDF4DAF48DF2480000C93E
S1133C80F06000C9F26000ADF2BDF4FAF48B9DF26D
S1133C905AF2FBADF0BDF4DAF48DF2480000C9F03D
S1133CA000FFC9F200FFADF2BDF4FAF48B9DF26A95
S1133CB0F204ADF0BDF4DAF48DF2480000C9F0204E
S1133CC0FFC9F220FFADF2BDF4FAF48B9DF25AF273
S1133CD0FBADF0BDF4DAF48DF248000061EFC06191
S1133CE0CFD761EFC161CFC9E82801C9F62801AD7A
S1133CF0F6BDF0FAF0ABBDF68DF66C049DF48DF7CD
S1133D006C009DF5DAE8ADF4780000C9F62A01C923
S1133D10F42A01ADF4BDF2FAF2ABBDF48DF46C04F7
S1133D209DF28DF56C009DF3ADF6BDF4DAF4ADF2C1
S1133D30780000C9F42201C9F22201ADF2BDF0FA03
S1133D40F0ABBDF28DF26C0C9DF08DF36C009DF127
S1133D50ADF4BDF2DAF2ADF0780000C9F0E2FFADE7
S1133D60F0BDF4FAF48B9DF25AF2FEADF0DAF48D64
S1133D70F2480000C9F0E2FFADF0BDF4FAF48B9D07
S1133D80F25AF2FDADF0DAF48DF2480000C9F0E623
S1133D90FFADF0BDF4FAF48B9DF25AF2FEADF0DA09
S1133DA0F48DF2480000C9F0E6FFADF0BDF4FAF47A
S1133DB08B9DF25AF2FDADF0DAF48DF24800006109
S1133DC0EFC061CFD7C9F4E6FFADF4BDF0FAF08BD4
S1133DD09DF66AF601ADF4BDF2DAF28DF648000004
S1133DE0C9F4E6FFADF4BDF0FAF08B9DF66AF60275
S1133DF0ADF4BDF2DAF28DF6480000C9F62401C92B
S1133E00F42401ADF4BDF0FAF0ABBDF48DF46C0C08
S1133E109DF28DF56C009DF3ADF6BDF4DAF4ADF2D0
S1133E20780000C9F42A01C9F22A01ADF2BDF0FA02
S1133E30F0ABBDF28DF25CFB9DF08DF35CFF9DF168
S1133E40ADF4BDF2DAF2ADF0780000C9F0E2FFADF6
S1133E50F0BDF4FAF48B9DF25AF2FEADF0DAF48D73
S1133E60F2480000C9F0E2FFADF0BDF4FAF48B9D16
S1133E70F25AF2FDADF0DAF48DF2480000D72004D6
S1133E80F6B802A80A44000061E8EC973E003081CD
S1133E9000B802ECA93E00F6BF32F0A80ABDF0BF9C
S1133EA02EF0A808BDF0BF3AF0A802BDF0B800BDDE
S1133EB0F01004D72008F6B806A80E44000061E804
S1133EC0ECCD3E00308100B806EC453F00A80CBDA7
S1133ED0F0BF3EF0A80EBDF0BF42F0C9F0E6FFAD62
S1133EE0F0BDF4FAF48B9DF26AF201ADF0DAF48DD0
S1133EF0F2480000C9F244FFAF3EF0BDF0BDF4FA51
S1133F00F48B9DF0ADF2BDF4DAF48DF0480000AF0F
S1133F103EF0BDF0A6F0ADF0BF3EF0AF42F0BDF014
S1133F20B804BDF4B802B1BDF0BF42F0C9F0E6FF79
S1133F30ADF0BDF4FAF48B9DF25AF2FEADF0DAF472
S1133F408DF2480000A806BDF0B800BDF01008D7F7
S1133F50C9F0F000ADF0BDF4FAF48B9DF26AF210F2
S1133F60ADF0DAF48DF2480000C9F03002ADF0BDD6
S1133F70F4FAF48B9DF25AF27FADF0DAF48DF24844
S1133F800000C9F0E6FFADF0BDF4FAF48B9DF26ACF
S1133F90F208ADF0DAF48DF2480000C9F0E2FFADAA
S1133FA0F0BDF4FAF48B9DF25AF2F7ADF0DAF48D29
S1133FB0F2480000C9F0EEFFADF0BDF4FAF48B9DB9
S1133FC0F26AF208ADF0DAF48DF2480000C9F0EAC2
S1133FD0FFADF0BDF4FAF48B9DF26AF208ADF0DAAD
S1133FE0F48DF2480000C9F006FFC9F206FFADF2F5
S1133FF0BDF4FAF48B9DF25AF2FCADF0BDF4DAF4A0
S11340008DF2480000C9F026FFC9F226FFADF2BDCB
S1134010F4FAF48B9DF26AF203ADF0BDF4DAF48D98
S1134020F2480000C9F03102ADF0BDF4FAF48B9D02
S1134030F25AF2F7ADF0DAF48DF2480000C9F0322A
S113404002ADF0BDF2DAF2514C480000C9F033027F
S1134050ADF0BDF4DAF45155480000C9F03102C99D
S1134060F23102ADF2BDF4FAF48B9DF26AF201ADC5
S1134070F0BDF4DAF48DF2480000C9F03402ADF07A
S1134080BDF2DAF25110480000C9F052FFADF0BDA4
S1134090F4FAF48B9DF26AF202ADF0DAF48DF24890
S11340A00000C9F052FFADF0BDF4FAF48B9DF26A42
S11340B0F201ADF0DAF48DF2480000C9F03002AD3F
S11340C0F0BDF4FAF48B9DF25AF2EFADF0DAF48D10
S11340D0F2480000C9F03002ADF0BDF4FAF48B9D53
S11340E0F26AF208ADF0DAF48DF2480000C9F0305B
S11340F002ADF0BDF4FAF48B9DF26AF204ADF0DA8D
S1134100F48DF2480000C9F0E6FFADF0BDF4FAF416
S11341108B9DF25AF2F7ADF0DAF48DF2480000C943
S1134120F03002ADF0BDF4FAF48B9DF26AF280AD8A
S1134130F0DAF48DF2480000C9F03002ADF0BDF4BD
S1134140FAF48B9DF26AF240ADF0DAF48DF2480095
S113415000C9F026FFC9F226FFADF2BDF4FAF48BD4
S11341609DF25AF2FCADF0BDF4DAF48DF248000091
S1134170D7C9F03002ADF0BDF4FAF48B9DF25AF2D7
S11341807FADF0DAF48DF2480000D7C9F03002AD0B
S1134190F0BDF4FAF48B9DF26AF201ADF0DAF48D1D
S11341A0F2480000D72004F6B802C9F0E6FFADF0EB
S11341B0BDF4FAF48B9DF26AF208ADF0DAF48DF2F4
S11341C0480000C9F052FFADF0BDF2FAF28B9DF049
S11341D05AF040D4F061F8ECFD4100C9F0E6FFADBF
S11341E0F0BDF4FAF48B9DF25AF2F7ADF0DAF48DE7
S11341F0F2480000308200B802ECD84200C9F03026
S113420002ADF0BDF2FAF28B9DF05AF001D4F061E8
S1134210E8EC2D4200C9F03002ADF0BDF4FAF48BA5
S11342209DF05AF002D4F061F8EC4F4200C9F0E678
S1134230FFADF0BDF4FAF48B9DF25AF2F7ADF0DA6B
S1134240F48DF2480000308300B802ECD84200C973
S1134250F03002ADF0BDF4FAF48B9DF26AF202ADD7
S1134260F0DAF48DF2480000C9F0E6FFADF0BDF4D9
S1134270FAF48B9DF25AF2F7ADF0DAF48DF24800BD
S11342800000880E9DF091980ED4F061E8EC824213
S113429000C9F051FFADF0BDF2FAF28B9DF05AF077
S11342A002D4F061E8ECAE4200308400B802A80CFD
S11342B0BDF0BF40F0A80ABDF0BF3CF0F544F08863
S11342C0085CFE9808C9F050FF88089DF2ADF0BD67
S11342D0F4DAF48DF2480000A802BDF0B800BDF095
S11342E01004D72004F6B802C9F0E6FFADF0BDF41F
S11342F0FAF48B9DF26AF208ADF0DAF48DF248001C
S113430000C9F052FFADF0BDF2FAF28B9DF05AF005
S113431040D4F061F8EC3B4300C9F0E6FFADF0BDDA
S1134320F4FAF48B9DF25AF2F7ADF0DAF48DF24818
S11343300000308200B802EC1A4400C9F03002AD2B
S1134340F0BDF2FAF28B9DF05AF001D4F061E8EC82
S11343506B4300C9F03002ADF0BDF4FAF48B9DF06C
S11343605AF002D4F061F8EC8D4300C9F0E6FFADD9
S1134370F0BDF4FAF48B9DF25AF2F7ADF0DAF48D55
S1134380F2480000308300B802EC1A4400C9F0304F
S113439002ADF0BDF4FAF48B9DF26AF202ADF0DAEC
S11343A0F48DF2480000C9F0E6FFADF0BDF4FAF474
S11343B08B9DF25AF2F7ADF0DAF48DF2480000006A
S11343C0880E9DF091980ED4F061E8ECC04300C9CA
S11343D0F051FFADF0BDF2FAF28B9DF05AF002D429
S11343E0F061E8ECEC4300308400B802A80CBDF0A6
S11343F0BF36F0F6BF38F0A80ABDF0BF30F0F54480
S1134400F088086C019808C9F050FF88089DF2AD47
S1134410F0BDF4DAF48DF2480000A802BDF0B80053
S1134420BDF01004D72004F6B802C9F0E6FFADF0E1
S1134430BDF4FAF48B9DF26AF208ADF0DAF48DF271
S1134440480000C9F052FFADF0BDF2FAF28B9DF0C6
S11344505AF040D4F061F8EC7D4400C9F0E6FFADB9
S1134460F0BDF4FAF48B9DF25AF2F7ADF0DAF48D64
S1134470F2480000308200B802ECCB4400C9F030AE
S113448002ADF0BDF2FAF28B9DF05AF001D4F06166
S1134490E8ECAD4400C9F03002ADF0BDF4FAF48BA1
S11344A09DF05AF002D4F061F8ECCB4400C9F0E678
S11344B0FFADF0BDF4FAF48B9DF25AF2F7ADF0DAE9
S11344C0F48DF2480000308300B802A802BDF0B8B1
S11344D000BDF01004D761CFC1C3C5C761DFC1C33C
S11344E0C5C761EFC761CF2008C9F00601ADF0BDB3
S11344F0F2FAF2ABBDF08DF05C079807C9F20E0139
S11345008807705100BDF0ADF2BDF4DAF4ADF07877
S113451000008807D161F8EC25450088079DF098D4
S113452000FC304600C9F046FFADF0BDF2FAF28B54
S11345309DF09806AF2EF0BDF2AF32F0BDF0ADF2B3
S113454046F061E3EC954500AF3AF0BDF088069D76
S1134550F2ADF0BDF4DAF48DF2480000AF3AF0BDEC
S1134560F0A6F0ADF0BF3AF0AF32F0BDF0B804BD44
S1134570F2B802A1BDF0BF32F0AF2EF0BDF2AF32FF
S1134580F0BDF0ADF246F061E8ECA24500FC29462E
S113459000ECA245008806705100BDF0B800FC2E66
S11345A04600100861EFC661DFC6C4C2C061CFC651
S11345B0C4C2C061FC61CFC1C3C5C761DFC1C3C58B
S11345C0C761EFC761CF2004AF42F0BDF0440000E3
S11345D061F8EC124600C9F244FFAF3EF0BDF0BDF5
S11345E0F4FAF48B9DF0ADF2BDF4DAF48DF04800EA
S11345F000AF3EF0BDF0A6F0ADF0BF3EF0AF42F02C
S1134600BDF0B802BDF4B800B1BDF0BF42F0EC1685
S11346104600FC2F4600100461EFC661DFC6C4C229
S1134620C061CFC6C4C2C061FCE6BF80F0D7D7D793
S1134630D761CFC1C3C5C761DFC1C3C5C761EFC7F8
S113464061CFC9F051FFADF0BDF2FAF28B9DF04C91
S11346500071FF61C8EC5D4600FC6E460061EFC668
S113466061DFC6C4C2C061CFC6C4C2C061FC200E33
S1134670C9F052FFADF0BDF2FAF28B9DF05AF04052
S1134680D4F061E8ECA14600AF40F0BDF044000076
S113469061F8ECA14600E6B800FC234900EC20498F
S11346A0008F44F09DF04C0071FF61D8ECB44700DA
S11346B0C9F051FFADF0BDF4FAF48B9DF05AF0044B
S11346C0D4F061F8ECA747008F44F09DF06AF080C5
S11346D08DF09F44F0C9F051FFADF0BDF2FAF28BBA
S11346E09DF05AF008D4F061F8EC584700C9F03056
S11346F002ADF0BDF4FAF48B9DF26AF208ADF0DA83
S1134700F48DF2480000AF40F0BDF044000061F8C1
S1134710EC504700C9F250FFAF3CF0BDF0BDF4FAD5
S1134720F48B9DF0ADF2BDF4DAF48DF0480000AFE7
S11347303CF0BDF0A6F0ADF0BF3CF0AF40F0BDF0F2
S1134740B80CBDF2B80AB1BDF0BF40F0EC2049008E
S1134750FC464900EC204900C9F03002ADF0BDF43C
S1134760FAF48B9DF26AF204ADF0DAF48DF24800AB
S113477000C9F03002ADF0BDF4FAF48B9DF25AF2A8
S1134780F7ADF0DAF48DF2480000C9F03002ADF074
S1134790BDF4FAF48B9DF26AF220ADF0DAF48DF2F6
S11347A0480000EC204900300200B800FC23490016
S11347B0EC204900C9F051FFADF0BDF2FAF28B9D37
S11347C0F05AF008D4F061F8EC514800C9F051FFF8
S11347D0ADF0BDF4FAF48B9DF05AF004D4F061E826
S11347E0ECFF4700AF40F0BDF044000061F8ECFF7F
S11347F04700300200B800FC234900EC204900AF18
S113480040F0BDF044000061F8EC494800C9F250A2
S1134810FFAF3CF0BDF0BDF4FAF48B9DF0ADF2BDFA
S1134820F4DAF48DF0480000AF3CF0BDF0A6F0AD32
S1134830F0BF3CF0AF40F0BDF0B808BDF2B806B12F
S1134840BDF0BF40F0EC204900FC464900EC204993
S113485000AF38F0BDF2AF36F0BDF0ADF246F06116
S1134860C8EC1C4900AF30F0BDF0C9F250FFADF206
S1134870BDF4FAF48B9DF2ADF0BDF4DAF48DF24898
S11348800000AF30F0BDF0A6F0ADF0BF30F0AF38AF
S1134890F0BDF0B804BDF2B802A1BDF0BF38F0BD60
S11348A0F2AF36F0BDF0ADF246F061E8ECFF48003F
S11348B0C9F03002ADF0BDF4FAF48B9DF25AF2FB6C
S11348C0ADF0DAF48DF2480000C9F03002ADF0BD6D
S11348D0F4FAF48B9DF26AF220ADF0DAF48DF2482A
S11348E00000C9F03002ADF0BDF4FAF48B9DF26A19
S11348F0F208ADF0DAF48DF2480000EC204900C96A
S1134900F03002ADF0BDF4FAF48B9DF26AF220AD02
S1134910F0DAF48DF2480000EC204900FC2849004C
S1134920100ED7E6BFAAF0D7C9F03002ADF0BDF43F
S1134930FAF48B9DF26AF201ADF0DAF48DF24800DC
S113494000E6BFAAF0D7C9F03002ADF0BDF4FAF426
S11349508B9DF26AF201ADF0DAF48DF2480000E6C4
S1134960BFAAF0D72014A818BDF0BDF2FAF28B9DAF
S1134970F0705100B810BDF0B80C8811317B9DF077
S1134980980E980FA80CBDF2B800A80EBDF0B8029E
S1134990FCF478008DF09DF48DF19DF58DF29DF67B
S11349A08DF39DF78DF498008DF598018DF698029E
S11349B08DF798033052B8B804302F43B806FCCCB6
S11349C071008DF09DF48DF19DF58DF29DF68DF3C2
S11349D09DF78DF48DF58DF68DF78DF098008DF1A2
S11349E098018DF298028DF39803F6B80430804351
S11349F0B806FCD475008DF09DF48DF19DF58DF213
S1134A009DF68DF39DF78DF48DF58DF68DF78DF074
S1134A1098008DF198018DF298028DF39803306619
S1134A2066B804303B42B806FC1B71008DF09DF45F
S1134A308DF19DF58DF29DF68DF39DF78DF48DF539
S1134A408DF68DF78DF098008DF198018DF2980216
S1134A508DF39803FC296A00ADF0B808ADF2B80AEA
S1134A60880898139DF061019DF01014D72010A8B8
S1134A7014BDF0BDF2FAF28B9DF0705100B80ABD7E
S1134A80F0B806312DB804BDF2B806315DB802A8FD
S1134A900616A80227B802A80A16A80207B8020137
S1134AA0B800BDF0B802BDF2B808318EBDF004F410
S1134AB0FFBDF0B80CC80E00C80F00880C9DF010A4
S1134AC010D72064A868316EB85EA86A316EB85CED
S1134AD0AF48F0BDF0B846BDF0B8428847317B9D81
S1134AE0F098449845A85CBDF0B818BDF0B83EC82D
S1134AF04000C84100A842BDF0B800A844BDF0B8C9
S1134B0002A83EBDF0B804A840BDF0B806FC3B7B4B
S1134B1000ADF0B814ADF2B816A814BDF0B83AA8B8
S1134B2016BDF0B83C883B70883C315D9858A83C71
S1134B30315D9859A83C31BFB85AAF46F0BDF0B8C2
S1134B4038BDF0B8348839317B9DF098369837FBFE
S1134B50F8FFA834610958B854A83661D8A161098E
S1134B605AB856A85EBDF0B812BDF0B830C83200CD
S1134B70C83300A830BDF0B800A832BDF0B802A810
S1134B8054BDF0B804A856BDF0B806FC3B7B00AD9C
S1134B90F0B80EADF2B810A80EBDF0B850A810BD14
S1134BA0F0B852AF4CF0BDF0B82EBDF0B82A882F43
S1134BB0317B9DF0982C982D882B70882C312DBD3D
S1134BC0F2A82A312D9DF2A82A31ADBDF0FBF8FFE1
S1134BD0ADF0610950B84CADF261D8A1610952B889
S1134BE04EAF4AF0BDF0B828BDF0B8248829317B17
S1134BF09DF098269827A85CBDF0B80CBDF0B820AD
S1134C00C82200C82300A824BDF0B800A826BDF01F
S1134C10B802A820BDF0B804A822BDF0B806FC3B39
S1134C207B00ADF0B808ADF2B80AA808BDF0B81C16
S1134C30A80ABDF0B81EA81E311FB84A881D61FB22
S1134C409849881C61FB9848FBF8FFA84C61094807
S1134C50BDF0A84E61D8A161094ABDF2D8F18DF228
S1134C60317D9860ADF2317D9861ADF2319FB862CB
S1134C70A86244000071FFA86061F844204E61E31B
S1134C80EC904C0030204EB860F6B862ECAA4C00B0
S1134C90A86244000071FFA86061F844000061F359
S1134CA0ECAA4C00E6B860F6B862A860BDF0B81A89
S1134CB0BDF01064D7A804BDF0BDF2FAF28B9DF0EC
S1134CC0CDF100ADF0318DBDF2A804A1BDF0BDF46D
S1134CD0FAF48B9DF0CDF100ADF206F0BDF0BF4CBF
S1134CE0F0A804040200BDF0BDF2FAF28B9DF0CDF1
S1134CF0F100ADF0318DBDF2A804040300BDF0BD98
S1134D00F4FAF48B9DF0CDF100ADF206F0BDF0BFE6
S1134D1046F0A804040400BDF0BDF2FAF28B9DF045
S1134D20CDF100ADF0318DBDF2A804040500BDF055
S1134D30BDF4FAF48B9DF0CDF100ADF206F0BDF0B8
S1134D40BF4AF0A804040600BDF0BDF2FAF28B9D40
S1134D50F0CDF100ADF0318DBDF2A804040700BD23
S1134D60F0BDF4FAF48B9DF0CDF100ADF206F0BD88
S1134D70F0BF48F0D72010AF6AEFBDF0312DBDF47D
S1134D80AF70EFBDF2AF72EFBDF0ADF206F0B80E4A
S1134D90BDF0B80CAF6CEFBDF0A80C26F0BDF0ADC3
S1134DA0F406F0B80ABDF0B80401B802BDF0B804C6
S1134DB0A80A16A80407B804312DB800BDF0B80439
S1134DC0A80A16A80407B804316DBDF0A80416ADEE
S1134DD0F027BDF0A80A06F0BDF031DEBDF0BF6AD1
S1134DE0EFAF70EFBDF2AF72EFBDF0ADF206F0B809
S1134DF008BDF0B806BDF0BF6CEFF6BF70EFF6BFAC
S1134E0072EFF6BF2CF01010D761EFC1C3C561CFAC
S1134E10202AC9F2F000ADF2BDF4FAF48B9DF06AD9
S1134E20F001ADF2DAF48DF0480000C9F0B601AD3E
S1134E30F0BDF2DAF2309500780000C9F0B401ADAB
S1134E40F0BDF4DAF430FF0A780000C9F2E6FFADF1
S1134E50F2BDF4FAF48B9DF06AF010ADF2DAF48D41
S1134E60F0480000C9F2E2FFADF2BDF4FAF48B9D04
S1134E70F05AF0EFADF2DAF48DF0480000C9F2E632
S1134E80FFADF2BDF4FAF48B9DF06AF020ADF2DAD6
S1134E90F48DF0480000C9F2E2FFADF2BDF4FAF47B
S1134EA08B9DF05AF0DFADF2DAF48DF0480000C9C2
S1134EB0F2E5FFADF2BDF4FAF48B9DF06AF080AD3B
S1134EC0F2DAF48DF0480000C9F2E1FFADF2BDF46E
S1134ED0FAF48B9DF05AF07FADF2DAF48DF04800CD
S1134EE000C9F2E6FFADF2BDF4FAF48B9DF06AF06E
S1134EF040ADF2DAF48DF0480000C9F2E2FFADF201
S1134F00BDF4FAF48B9DF05AF0BFADF2DAF48DF0F3
S1134F10480000C9F2E6FFADF2BDF4FAF48B9DF04F
S1134F206AF080ADF2DAF48DF0480000C9F2E2FFD5
S1134F30ADF2BDF4FAF48B9DF05AF07FADF2DAF4E1
S1134F408DF0480000C9F2E6FFADF2BDF4FAF48B2F
S1134F509DF06AF004ADF2DAF48DF0480000C9F275
S1134F60E2FFADF2BDF4FAF48B9DF05AF0FBADF222
S1134F70DAF48DF0480000C9F2E7FFADF2BDF4FAAF
S1134F80F48B9DF06AF080ADF2DAF48DF048000005
S1134F90C9F2E3FFADF2BDF4FAF48B9DF05AF07F51
S1134FA0ADF2DAF48DF0480000C9F2D4FFADF2BDE1
S1134FB0F4FAF48B9DF06AF001ADF2DAF48DF04866
S1134FC00000C9F2D0FFADF2BDF4FAF48B9DF05AA3
S1134FD0F0FEADF2DAF48DF0480000C9F2D4FFAD72
S1134FE0F2BDF4FAF48B9DF06AF002ADF2DAF48DBE
S1134FF0F0480000C9F2D0FFADF2BDF4FAF48B9D85
S1135000F05AF0FDADF2DAF48DF0480000C9F2D4A4
S1135010FFADF2BDF4FAF48B9DF06AF004ADF2DA60
S1135020F48DF0480000C9F2D0FFADF2BDF4FAF4FB
S11350308B9DF05AF0FBADF2DAF48DF0480000C914
S1135040F2EEFFADF2BDF4FAF48B9DF06AF010AD10
S1135050F2DAF48DF0480000C9F2EAFFADF2BDF4D3
S1135060FAF48B9DF06AF010ADF2DAF48DF048009A
S113507000C9F2EEFFADF2BDF4FAF48B9DF06AF0D4
S113508020ADF2DAF48DF0480000C9F2EAFFADF287
S1135090BDF4FAF48B9DF06AF020ADF2DAF48DF0F1
S11350A0480000C9F2EEFFADF2BDF4FAF48B9DF0B6
S11350B06AF040ADF2DAF48DF0480000C9F2EAFF7C
S11350C0ADF2BDF4FAF48B9DF06AF040ADF2DAF47F
S11350D08DF0480000C9F2EEFFADF2BDF4FAF48B96
S11350E09DF06AF080ADF2DAF48DF0480000C9F268
S11350F0EAFFADF2BDF4FAF48B9DF06AF080ADF2F4
S1135100DAF48DF0480000C9F2EFFFADF2BDF4FA15
S1135110F48B9DF06AF080ADF2DAF48DF048000073
S1135120C9F2EBFFADF2BDF4FAF48B9DF06AF080A6
S1135130ADF2DAF48DF0480000C9F2DCFFADF2BD47
S1135140F4FAF48B9DF06AF001ADF2DAF48DF048D4
S11351500000C9F2D8FFADF2BDF4FAF48B9DF06AF9
S1135160F001ADF2DAF48DF0480000C9F2DCFFADD5
S1135170F2BDF4FAF48B9DF06AF004ADF2DAF48D2A
S1135180F0480000C9F2D8FFADF2BDF4FAF48B9DEB
S1135190F06AF004ADF2DAF48DF0480000C9F09042
S11351A001ADF0BDF2DAF2F6780000C9F018FFADF7
S11351B0F0BDF4DAF430FFF9780000C9F2B801C99F
S11351C0F0B801ADF0BDF4FAF4ABBDF08DF05CFEC7
S11351D09DF48DF15CFF9DF5ADF2BDF0DAF0ADF418
S11351E0780000C9F2BA01C9F0BA01ADF0BDF4FA11
S11351F0F4ABBDF08DF05CFE9DF68DF15CFF9DF788
S1135200ADF2BDF0DAF0ADF6780000C9F09201AD70
S1135210F0BDF2DAF2F6780000C9F01AFFADF0BD85
S1135220F4DAF4300F27780000C9F2BE01C9F0BEE9
S113523001ADF0BDF4FAF4ABBDF08DF05CFD9DE87A
S11352408DF15CFF9DE9ADF2BDF0DAF0ADE87800D8
S113525000C9F2BC01C9F0BC01ADF0BDF4FAF4AB75
S1135260BDF08DF05CFD9DEA8DF15CFF9DEBADF230
S1135270BDF0DAF0ADEA780000C9F2B801C9F0B8BF
S113528001ADF0BDF4FAF4ABBDF08DF05CFD9DEC26
S11352908DF15CFF9DEDADF2BDF0DAF0ADEC780080
S11352A000C9F2BA01C9F0BA01ADF0BDF4FAF4AB29
S11352B0BDF08DF05CFD98288DF15CFF9829A8283D
S11352C0BDF4ADF2BDF0DAF0ADF4780000C9F094AD
S11352D001ADF0BDF2DAF2300080780000C9F0646C
S11352E0FFADF0BDF4DAF430117A780000C9F2BEF3
S11352F001C9F0BE01ADF0BDF4FAF4ABBDF08DF020
S11353005CFB98268DF15CFF9827A826BDF4ADF2CE
S1135310BDF0DAF0ADF4780000C9F2BC01C9F0BC0C
S113532001ADF0BDF4FAF4ABBDF08DF05CFB982454
S11353308DF15CFF9825A824BDF4ADF2BDF0DAF040
S1135340ADF4780000C9F2B801C9F0B801ADF0BD00
S1135350F4FAF4ABBDF08DF05CFB98228DF15CFFA8
S11353609823A822BDF4ADF2BDF0DAF0ADF47800D4
S113537000C9F2BA01C9F0BA01ADF0BDF4FAF4AB58
S1135380BDF08DF05CFB98208DF15CFF9821A82086
S1135390BDF4ADF2BDF0DAF0ADF4780000C9F096DA
S11353A001ADF0BDF2DAF2300180780000C9F06698
S11353B0FFADF0BDF4DAF43023F4780000C9F2BE96
S11353C001C9F0BE01ADF0BDF4FAF4ABBDF08DF04F
S11353D05CF7981E8DF15CFF981FA81EBDF4ADF21A
S11353E0BDF0DAF0ADF4780000C9F2BC01C9F0BC3C
S11353F001ADF0BDF4FAF4ABBDF08DF05CF7981C90
S11354008DF15CFF981DA81CBDF4ADF2BDF0DAF07F
S1135410ADF4780000C9F2B801C9F0B801ADF0BD2F
S1135420F4FAF4ABBDF08DF05CF7981A8DF15CFFE3
S1135430981BA81ABDF4ADF2BDF0DAF0ADF4780013
S113544000C9F2BA01C9F0BA01ADF0BDF4FAF4AB87
S1135450BDF08DF05CF798188DF15CFF9819A818D1
S1135460BDF4ADF2BDF0DAF0ADF4780000C9F09807
S113547001ADF0BDF2DAF2308610780000C9F068B0
S1135480FFADF0BDF4DAF4F6780000C9F2BE01C94C
S1135490F0BE01ADF0BDF4FAF4ABBDF08DF05CEFFD
S11354A098168DF15CFF9817A816BDF4ADF2BDF007
S11354B0DAF0ADF4780000C9F2BC01C9F0BC01AD6A
S11354C0F0BDF4FAF4ABBDF08DF05CEF98148DF1FF
S11354D05CFF9815A814BDF4ADF2BDF0DAF0ADF49C
S11354E0780000C9F2B801C9F0B801ADF0BDF4FA12
S11354F0F4ABBDF08DF05CEF98128DF15CFF981366
S1135500A812BDF4ADF2BDF0DAF0ADF4780000C934
S1135510F2BA01C9F0BA01ADF0BDF4FAF4ABBDF0D2
S11355208DF05CEF98108DF15CFF9811A810BDF41C
S1135530ADF2BDF0DAF0ADF4780000C9F27100C943
S1135540F07100ADF0BDF4FAF48B9DF05AF0EFADBC
S1135550F2BDF4DAF48DF0480000C9F09A01ADF020
S1135560BDF2DAF2F6780000C9F06AFFADF0BDF4DE
S1135570DAF4308713780000C9F2BE01C9F0BE0125
S1135580ADF0BDF4FAF4ABBDF08DF05CDF980E8D98
S1135590F15CFF980FA80EBDF4ADF2BDF0DAF0ADEA
S11355A0F4780000C9F2BC01C9F0BC01ADF0BDF44F
S11355B0FAF4ABBDF08DF05CDF980C8DF15CFF98D4
S11355C00DA80CBDF4ADF2BDF0DAF0ADF478000036
S11355D0C9F2B801C9F0B801ADF0BDF4FAF4ABBD3D
S11355E0F08DF05CDF980A8DF15CFF980BA80ABD82
S11355F0F4ADF2BDF0DAF0ADF4780000C9F2BA010E
S1135600C9F0BA01ADF0BDF4FAF4ABBDF08DF05CB5
S1135610DF98088DF15CFF9809A808BDF4ADF2BDD0
S1135620F0DAF0ADF4780000C9F09E01ADF0BDF2FF
S1135630DAF2308610780000C9F06EFFADF0BDF4E8
S1135640DAF4F6780000C9F2BE01C9F0BE01ADF08B
S1135650BDF4FAF4ABBDF08DF05C7F98068DF15C7F
S1135660FF9807A806BDF4ADF2BDF0DAF0ADF4780A
S11356700000C9F2BC01C9F0BC01ADF0BDF4FAF4FC
S1135680ABBDF08DF05C7F98048DF15CFF9805A8AC
S113569004BDF4ADF2BDF0DAF0ADF4780000C9F267
S11356A0B801C9F0B801ADF0BDF4FAF4ABBDF08DAA
S11356B0F05C7F98028DF15CFF9803A802BDF4AD05
S11356C0F2BDF0DAF0ADF4780000C9F2BA01C9F025
S11356D0BA01ADF0BDF4FAF4ABBDF08DF05C7F9887
S11356E0008DF15CFF9801A800BDF4ADF2BDF0DAC5
S11356F0F0ADF4780000C9F07100C9F27100ADF2A8
S1135700BDF4FAF48B9DF25AF27FADF0BDF4DAF4F5
S11357108DF2480000C9F024FFC9F224FFADF2BDA8
S1135720F4FAF48B9DF26AF204ADF0BDF4DAF48D70
S1135730F2480000C9F024FFC9F224FFADF2BDF421
S1135740FAF48B9DF26AF202ADF0BDF4DAF48DF254
S1135750480000102A61EFC4C2C061CFD7C9F2E289
S1135760FFADF2BDF0FAF08B9DF45AF4EFADF2DA2E
S1135770F08DF4480000C9F2E6FFADF2BDF0FAF096
S11357808B9DF45AF4EFADF2DAF08DF4480000C9C1
S1135790F4B201C9F2B201ADF2BDF0FAF0ABBDF260
S11357A08DF26C019DF08DF36C009DF1ADF4BDF2B2
S11357B0DAF2ADF0780000D7C9F4B401C9F2B4014B
S11357C0ADF2BDF0FAF0ABBDF28DF26C019DF08D3F
S11357D0F36C009DF1ADF4BDF2DAF2ADF0780000A7
S11357E0C9F0E6FFADF0BDF4FAF48B9DF26AF21055
S11357F0ADF0DAF48DF2480000C9F0E2FFADF0BD7F
S1135800F4FAF48B9DF25AF2EFADF0DAF48DF2482B
S11358100000D7C9F2E2FFADF2BDF0FAF08B9DF4BF
S11358205AF4DFADF2DAF08DF4480000C9F2E6FF75
S1135830ADF2BDF0FAF08B9DF45AF4DFADF2DAF07C
S11358408DF4480000C9F4B201C9F2B201ADF2BD51
S1135850F0FAF0ABBDF28DF26C029DF08DF36C00AA
S11358609DF1ADF4BDF2DAF2ADF0780000D7C9F4E1
S1135870B401C9F2B401ADF2BDF0FAF0ABBDF28DE2
S1135880F26C029DF08DF36C009DF1ADF4BDF2DA83
S1135890F2ADF0780000C9F0E6FFADF0BDF4FAF423
S11358A08B9DF26AF220ADF0DAF48DF2480000C963
S11358B0F0E2FFADF0BDF4FAF48B9DF25AF2DFADE5
S11358C0F0DAF48DF2480000D7C9F2E2FFADF2BD80
S11358D0F0FAF08B9DF45AF4BFADF2DAF08DF4488F
S11358E00000C9F2E6FFADF2BDF0FAF08B9DF45A68
S11358F0F4BFADF2DAF08DF4480000C9F4B201C986
S1135900F2B201ADF2BDF0FAF0ABBDF28DF26C046F
S11359109DF08DF36C009DF1ADF4BDF2DAF2ADF0C3
S1135920780000D7C9F4B401C9F2B401ADF2BDF0F6
S1135930FAF0ABBDF28DF26C049DF08DF36C009D1A
S1135940F1ADF4BDF2DAF2ADF0780000C9F0E6FF93
S1135950ADF0BDF4FAF48B9DF26AF240ADF0DAF4E6
S11359608DF2480000C9F0E2FFADF0BDF4FAF48B0B
S11359709DF25AF2BFADF0DAF48DF2480000D7C9B7
S1135980F2E2FFADF2BDF0FAF08B9DF45AF47FAD74
S1135990F2DAF08DF4480000C9F2E6FFADF2BDF092
S11359A0FAF08B9DF45AF47FADF2DAF08DF44800EE
S11359B000C9F4B201C9F2B201ADF2BDF0FAF0AB24
S11359C0BDF28DF26C089DF08DF36C009DF1ADF489
S11359D0BDF2DAF2ADF0780000D7C9F4B401C9F22F
S11359E0B401ADF2BDF0FAF0ABBDF28DF26C089DDE
S11359F0F08DF36C009DF1ADF4BDF2DAF2ADF07808
S1135A000000C9F0E6FFADF0BDF4FAF48B9DF26A34
S1135A10F280ADF0DAF48DF2480000C9F0E2FFAD97
S1135A20F0BDF4FAF48B9DF25AF27FADF0DAF48D06
S1135A30F2480000D7C9F2E3FFADF2BDF0FAF08BF3
S1135A409DF45AF47FADF2DAF08DF4480000C9F207
S1135A50E7FFADF2BDF0FAF08B9DF45AF47FADF29E
S1135A60DAF08DF4480000C9F4B201C9F2B201AD14
S1135A70F2BDF0FAF0ABBDF28DF26C109DF08DF337
S1135A806C009DF1ADF4BDF2DAF2ADF0780000D710
S1135A90C9F4B401C9F2B401ADF2BDF0FAF0ABBD82
S1135AA0F28DF26C109DF08DF36C009DF1ADF4BDA0
S1135AB0F2DAF2ADF0780000C9F0E7FFADF0BDF422
S1135AC0FAF48B9DF26AF280ADF0DAF48DF24800BC
S1135AD000C9F0E3FFADF0BDF4FAF48B9DF25AF285
S1135AE07FADF0DAF48DF2480000D7C9F2D0FFADF3
S1135AF0F2BDF0FAF08B9DF45AF4FEADF2DAF08DBB
S1135B00F4480000C9F2D4FFADF2BDF0FAF08B9D69
S1135B10F45AF4FEADF2DAF08DF4480000C9F4B2A0
S1135B2001C9F2B201ADF2BDF0FAF0ABBDF28DF2F3
S1135B306C209DF08DF36C009DF1ADF4BDF2DAF2B2
S1135B40ADF0780000D7C9F4B401C9F2B401ADF2E4
S1135B50BDF0FAF0ABBDF28DF26C209DF08DF36CCC
S1135B60009DF1ADF4BDF2DAF2ADF0780000C9F0B9
S1135B70D4FFADF0BDF4FAF48B9DF26AF201ADF0FE
S1135B80DAF48DF2480000C9F0D0FFADF0BDF4FAAC
S1135B90F48B9DF25AF2FEADF0DAF48DF248000077
S1135BA0D7C9F2D0FFADF2BDF0FAF08B9DF45AF4F0
S1135BB0FBADF2DAF08DF4480000C9F2D4FFADF287
S1135BC0BDF0FAF08B9DF45AF4FBADF2DAF08DF4EB
S1135BD0480000C9F4B201C9F2B201ADF2BDF0FA55
S1135BE0F0ABBDF28DF26C809DF08DF36C009DF1F5
S1135BF0ADF4BDF2DAF2ADF0780000D7C9F4B40127
S1135C00C9F2B401ADF2BDF0FAF0ABBDF28DF26CA5
S1135C10809DF08DF36C009DF1ADF4BDF2DAF2AD30
S1135C20F0780000C9F0D4FFADF0BDF4FAF48B9D18
S1135C30F26AF204ADF0DAF48DF2480000C9F0D053
S1135C40FFADF0BDF4FAF48B9DF25AF2FBADF0DA3D
S1135C50F48DF2480000D761CFC1C3C5C7C6C4C222
S1135C60C061FC61CFC1C3C5C761DFC161CFE6BFFD
S1135C707CEFAF7EEFBDF0A6F0ADF0BF7EEF61DF4D
S1135C80C061CFC6C4C2C061FC61CFC1C3C5C76116
S1135C90DFC161CFAF74EFBDF0A6F0ADF0BF74EF1C
S1135CA0E6BF76EF61DFC061CFC6C4C2C061FC61EC
S1135CB0CFC1C3C5C761DFC1C361CF2004AF06EF45
S1135CC0BDF2A6F2ADF2BF06EFE6BF7AEFAF06EF84
S1135CD0BDF0B802BDF0B80088005C019DF08801F9
S1135CE05C009DF1ADF044000061E8EC015D00AFA3
S1135CF006EFBDF044000061F8EC015D00E6BF78FA
S1135D00EF100461DFC2C061CFC6C4C2C061FC61D0
S1135D10CFC1C3C5C761DFC161CFAF70EFBDF0A60E
S1135D20F0ADF0BF70EF61DFC061CFC6C4C2C06127
S1135D30FC61CFC1C3C5C761DFC161CFE6BF80EFDE
S1135D40AF6EEFBDF0A6F0ADF0BF6EEFAF8AF0BD61
S1135D50F044000061F8EC725D00AF6EEFBDF044FA
S1135D60C70071FF61E3EC725D00F6BF8AF0E6BF25
S1135D7084F061DFC061CFC6C4C2C061FC61CFC121
S1135D80C3C5C761DFC161CFAF72EFBDF0A6F0AD8F
S1135D90F0BF72EF61DFC061CFC6C4C2C061FC61F5
S1135DA0CFC1C3C5C7C6C4C2C061FCC9F07700ADCA
S1135DB0F0BDF2DAF2F1480000FC1E2F00FC5B2E6D
S1135DC000FCB33300FCDD3900FC503F00FC094EFD
S1135DD000FCC23300FC193300C9F07800ADF0BDFB
S1135DE0F2DAF2F1480000D72002717BFAFCAB5DD5
S1135DF000E6B800BDF01002D72038FCC56900FCED
S1135E00B33300C9F027FFADF0BDF2DAF2F1480078
S1135E1000FC094E00FC193300FC683400FCAE237E
S1135E2000F6BF0AF2CF18F24EF6BFAAF3F6BF0C83
S1135E30F2F6BFA2F0F6BF78F0F6BF8AF0CF2AF0F0
S1135E4002F513F2F54EF0F6BF84F030D0EFBF7CCC
S1135E50F0F6BF7EF0F6BFA8F0CF14F208CFA4F09E
S1135E60C8CF90F0CECF7AF0ECCFA0F050F6B83691
S1135E70EC8D5E00A836BDF001BDF00496F0BDF0D7
S1135E80BDF2DAF2F6780000A836A1B836A8364496
S1135E90040071FF61E3EC745E008FD0EF9DF09815
S1135EA0008FD1EF9DF098018FD2EF9DF098028F73
S1135EB0D3EF9DF098038FD4EF9DF098048FD5EF26
S1135EC09DF098058FD6EF9DF09806FC923600ADB4
S1135ED0F0BF7EF3BDF044000061E8EC9A5E00FC84
S1135EE00F3A00FCE23C00F6BFAAF0F6B800FC7CD6
S1135EF039008DF09FD0EF300F00B800FC7C3900E2
